{
  "_format": "hh-sol-artifact-1",
  "contractName": "BASEERC721",
  "sourceName": "contracts/Base_ERC721.sol",
  "abi": [
    {
      "inputs": [
        {
          "internalType": "string",
          "name": "baseURI",
          "type": "string"
        },
        {
          "internalType": "uint256",
          "name": "max_per_tx",
          "type": "uint256"
        },
        {
          "internalType": "string",
          "name": "name",
          "type": "string"
        },
        {
          "internalType": "string",
          "name": "symbol",
          "type": "string"
        }
      ],
      "stateMutability": "nonpayable",
      "type": "constructor"
    },
    {
      "anonymous": false,
      "inputs": [
        {
          "indexed": true,
          "internalType": "address",
          "name": "owner",
          "type": "address"
        },
        {
          "indexed": true,
          "internalType": "address",
          "name": "approved",
          "type": "address"
        },
        {
          "indexed": true,
          "internalType": "uint256",
          "name": "tokenId",
          "type": "uint256"
        }
      ],
      "name": "Approval",
      "type": "event"
    },
    {
      "anonymous": false,
      "inputs": [
        {
          "indexed": true,
          "internalType": "address",
          "name": "owner",
          "type": "address"
        },
        {
          "indexed": true,
          "internalType": "address",
          "name": "operator",
          "type": "address"
        },
        {
          "indexed": false,
          "internalType": "bool",
          "name": "approved",
          "type": "bool"
        }
      ],
      "name": "ApprovalForAll",
      "type": "event"
    },
    {
      "anonymous": false,
      "inputs": [
        {
          "indexed": true,
          "internalType": "address",
          "name": "previousOwner",
          "type": "address"
        },
        {
          "indexed": true,
          "internalType": "address",
          "name": "newOwner",
          "type": "address"
        }
      ],
      "name": "OwnershipTransferred",
      "type": "event"
    },
    {
      "anonymous": false,
      "inputs": [
        {
          "indexed": true,
          "internalType": "address",
          "name": "from",
          "type": "address"
        },
        {
          "indexed": true,
          "internalType": "address",
          "name": "to",
          "type": "address"
        },
        {
          "indexed": true,
          "internalType": "uint256",
          "name": "tokenId",
          "type": "uint256"
        }
      ],
      "name": "Transfer",
      "type": "event"
    },
    {
      "inputs": [],
      "name": "BASE_URI",
      "outputs": [
        {
          "internalType": "string",
          "name": "",
          "type": "string"
        }
      ],
      "stateMutability": "view",
      "type": "function"
    },
    {
      "inputs": [],
      "name": "CONTRACT_OWNER",
      "outputs": [
        {
          "internalType": "address",
          "name": "",
          "type": "address"
        }
      ],
      "stateMutability": "view",
      "type": "function"
    },
    {
      "inputs": [],
      "name": "MAX_PER_TX",
      "outputs": [
        {
          "internalType": "uint256",
          "name": "",
          "type": "uint256"
        }
      ],
      "stateMutability": "view",
      "type": "function"
    },
    {
      "inputs": [],
      "name": "MAX_SUPPLY",
      "outputs": [
        {
          "internalType": "uint256",
          "name": "",
          "type": "uint256"
        }
      ],
      "stateMutability": "view",
      "type": "function"
    },
    {
      "inputs": [],
      "name": "PRICE",
      "outputs": [
        {
          "internalType": "uint256",
          "name": "",
          "type": "uint256"
        }
      ],
      "stateMutability": "view",
      "type": "function"
    },
    {
      "inputs": [],
      "name": "PUBLIC_SALE",
      "outputs": [
        {
          "internalType": "bool",
          "name": "",
          "type": "bool"
        }
      ],
      "stateMutability": "view",
      "type": "function"
    },
    {
      "inputs": [
        {
          "internalType": "address",
          "name": "to",
          "type": "address"
        },
        {
          "internalType": "uint256",
          "name": "tokenId",
          "type": "uint256"
        }
      ],
      "name": "approve",
      "outputs": [],
      "stateMutability": "nonpayable",
      "type": "function"
    },
    {
      "inputs": [
        {
          "internalType": "address",
          "name": "owner",
          "type": "address"
        }
      ],
      "name": "balanceOf",
      "outputs": [
        {
          "internalType": "uint256",
          "name": "",
          "type": "uint256"
        }
      ],
      "stateMutability": "view",
      "type": "function"
    },
    {
      "inputs": [
        {
          "internalType": "uint256",
          "name": "tokenId",
          "type": "uint256"
        }
      ],
      "name": "getApproved",
      "outputs": [
        {
          "internalType": "address",
          "name": "",
          "type": "address"
        }
      ],
      "stateMutability": "view",
      "type": "function"
    },
    {
      "inputs": [
        {
          "internalType": "address",
          "name": "owner",
          "type": "address"
        },
        {
          "internalType": "address",
          "name": "operator",
          "type": "address"
        }
      ],
      "name": "isApprovedForAll",
      "outputs": [
        {
          "internalType": "bool",
          "name": "",
          "type": "bool"
        }
      ],
      "stateMutability": "view",
      "type": "function"
    },
    {
      "inputs": [
        {
          "internalType": "address",
          "name": "addr",
          "type": "address"
        },
        {
          "internalType": "uint256",
          "name": "quantity",
          "type": "uint256"
        }
      ],
      "name": "mint",
      "outputs": [],
      "stateMutability": "payable",
      "type": "function"
    },
    {
      "inputs": [
        {
          "internalType": "uint256",
          "name": "quantity",
          "type": "uint256"
        },
        {
          "components": [
            {
              "internalType": "address",
              "name": "allow",
              "type": "address"
            }
          ],
          "internalType": "struct BASEERC721.AllowList",
          "name": "dataToVerify",
          "type": "tuple"
        },
        {
          "internalType": "bytes",
          "name": "signature",
          "type": "bytes"
        },
        {
          "internalType": "address",
          "name": "addr",
          "type": "address"
        },
        {
          "internalType": "string",
          "name": "nonce",
          "type": "string"
        }
      ],
      "name": "mintAllowList",
      "outputs": [],
      "stateMutability": "payable",
      "type": "function"
    },
    {
      "inputs": [],
      "name": "name",
      "outputs": [
        {
          "internalType": "string",
          "name": "",
          "type": "string"
        }
      ],
      "stateMutability": "view",
      "type": "function"
    },
    {
      "inputs": [],
      "name": "owner",
      "outputs": [
        {
          "internalType": "address",
          "name": "",
          "type": "address"
        }
      ],
      "stateMutability": "view",
      "type": "function"
    },
    {
      "inputs": [
        {
          "internalType": "uint256",
          "name": "tokenId",
          "type": "uint256"
        }
      ],
      "name": "ownerOf",
      "outputs": [
        {
          "internalType": "address",
          "name": "",
          "type": "address"
        }
      ],
      "stateMutability": "view",
      "type": "function"
    },
    {
      "inputs": [],
      "name": "renounceOwnership",
      "outputs": [],
      "stateMutability": "nonpayable",
      "type": "function"
    },
    {
      "inputs": [
        {
          "internalType": "address",
          "name": "from",
          "type": "address"
        },
        {
          "internalType": "address",
          "name": "to",
          "type": "address"
        },
        {
          "internalType": "uint256",
          "name": "tokenId",
          "type": "uint256"
        }
      ],
      "name": "safeTransferFrom",
      "outputs": [],
      "stateMutability": "nonpayable",
      "type": "function"
    },
    {
      "inputs": [
        {
          "internalType": "address",
          "name": "from",
          "type": "address"
        },
        {
          "internalType": "address",
          "name": "to",
          "type": "address"
        },
        {
          "internalType": "uint256",
          "name": "tokenId",
          "type": "uint256"
        },
        {
          "internalType": "bytes",
          "name": "_data",
          "type": "bytes"
        }
      ],
      "name": "safeTransferFrom",
      "outputs": [],
      "stateMutability": "nonpayable",
      "type": "function"
    },
    {
      "inputs": [
        {
          "internalType": "address",
          "name": "operator",
          "type": "address"
        },
        {
          "internalType": "bool",
          "name": "approved",
          "type": "bool"
        }
      ],
      "name": "setApprovalForAll",
      "outputs": [],
      "stateMutability": "nonpayable",
      "type": "function"
    },
    {
      "inputs": [
        {
          "internalType": "bytes4",
          "name": "interfaceId",
          "type": "bytes4"
        }
      ],
      "name": "supportsInterface",
      "outputs": [
        {
          "internalType": "bool",
          "name": "",
          "type": "bool"
        }
      ],
      "stateMutability": "view",
      "type": "function"
    },
    {
      "inputs": [],
      "name": "symbol",
      "outputs": [
        {
          "internalType": "string",
          "name": "",
          "type": "string"
        }
      ],
      "stateMutability": "view",
      "type": "function"
    },
    {
      "inputs": [],
      "name": "togglePublicSale",
      "outputs": [],
      "stateMutability": "nonpayable",
      "type": "function"
    },
    {
      "inputs": [
        {
          "internalType": "uint256",
          "name": "index",
          "type": "uint256"
        }
      ],
      "name": "tokenByIndex",
      "outputs": [
        {
          "internalType": "uint256",
          "name": "",
          "type": "uint256"
        }
      ],
      "stateMutability": "view",
      "type": "function"
    },
    {
      "inputs": [
        {
          "internalType": "address",
          "name": "owner",
          "type": "address"
        },
        {
          "internalType": "uint256",
          "name": "index",
          "type": "uint256"
        }
      ],
      "name": "tokenOfOwnerByIndex",
      "outputs": [
        {
          "internalType": "uint256",
          "name": "",
          "type": "uint256"
        }
      ],
      "stateMutability": "view",
      "type": "function"
    },
    {
      "inputs": [
        {
          "internalType": "uint256",
          "name": "tokenId",
          "type": "uint256"
        }
      ],
      "name": "tokenURI",
      "outputs": [
        {
          "internalType": "string",
          "name": "",
          "type": "string"
        }
      ],
      "stateMutability": "view",
      "type": "function"
    },
    {
      "inputs": [],
      "name": "totalSupply",
      "outputs": [
        {
          "internalType": "uint256",
          "name": "",
          "type": "uint256"
        }
      ],
      "stateMutability": "view",
      "type": "function"
    },
    {
      "inputs": [
        {
          "internalType": "address",
          "name": "from",
          "type": "address"
        },
        {
          "internalType": "address",
          "name": "to",
          "type": "address"
        },
        {
          "internalType": "uint256",
          "name": "tokenId",
          "type": "uint256"
        }
      ],
      "name": "transferFrom",
      "outputs": [],
      "stateMutability": "nonpayable",
      "type": "function"
    },
    {
      "inputs": [
        {
          "internalType": "address",
          "name": "newOwner",
          "type": "address"
        }
      ],
      "name": "transferOwnership",
      "outputs": [],
      "stateMutability": "nonpayable",
      "type": "function"
    }
  ],
  "bytecode": "0x6101406040526040518060400160405280600181526020017f3000000000000000000000000000000000000000000000000000000000000000815250600b908051906020019062000052929190620003a3565b50612710600d5566d529ae9e860000600e556000600f556000601060006101000a81548160ff0219169083151502179055503480156200009157600080fd5b5060405162005513380380620055138339818101604052810190620000b79190620004dc565b6040518060400160405280600981526020017f416c6c6f774c69737400000000000000000000000000000000000000000000008152506040518060400160405280600381526020017f312e300000000000000000000000000000000000000000000000000000000000815250838381600090805190602001906200013d929190620003a3565b50806001908051906020019062000156929190620003a3565b505050620001796200016d6200029960201b60201c565b620002a160201b60201c565b60008280519060200120905060008280519060200120905060007f8b73c3c69bb8fe3d512ecc4cf759cc79239f7b179b0ffacaa9a75d522b39400f90508260e081815250508161010081815250504660a08181525050620001e28184846200036760201b60201c565b608081815250503073ffffffffffffffffffffffffffffffffffffffff1660c08173ffffffffffffffffffffffffffffffffffffffff1660601b81525050806101208181525050505050505083600c908051906020019062000246929190620003a3565b5082600f8190555033601060016101000a81548173ffffffffffffffffffffffffffffffffffffffff021916908373ffffffffffffffffffffffffffffffffffffffff16021790555050505050620007f5565b600033905090565b6000600a60009054906101000a900473ffffffffffffffffffffffffffffffffffffffff16905081600a60006101000a81548173ffffffffffffffffffffffffffffffffffffffff021916908373ffffffffffffffffffffffffffffffffffffffff1602179055508173ffffffffffffffffffffffffffffffffffffffff168173ffffffffffffffffffffffffffffffffffffffff167f8be0079c531659141344cd1fd0a4f28419497f9722a3daafe3b4186f6b6457e060405160405180910390a35050565b6000838383463060405160200162000384959493929190620005c6565b6040516020818303038152906040528051906020012090509392505050565b828054620003b19062000700565b90600052602060002090601f016020900481019282620003d5576000855562000421565b82601f10620003f057805160ff191683800117855562000421565b8280016001018555821562000421579182015b828111156200042057825182559160200191906001019062000403565b5b50905062000430919062000434565b5090565b5b808211156200044f57600081600090555060010162000435565b5090565b60006200046a62000464846200064c565b62000623565b9050828152602081018484840111156200048357600080fd5b62000490848285620006ca565b509392505050565b600082601f830112620004aa57600080fd5b8151620004bc84826020860162000453565b91505092915050565b600081519050620004d681620007db565b92915050565b60008060008060808587031215620004f357600080fd5b600085015167ffffffffffffffff8111156200050e57600080fd5b6200051c8782880162000498565b94505060206200052f87828801620004c5565b935050604085015167ffffffffffffffff8111156200054d57600080fd5b6200055b8782880162000498565b925050606085015167ffffffffffffffff8111156200057957600080fd5b620005878782880162000498565b91505092959194509250565b6200059e8162000682565b82525050565b620005af8162000696565b82525050565b620005c081620006c0565b82525050565b600060a082019050620005dd6000830188620005a4565b620005ec6020830187620005a4565b620005fb6040830186620005a4565b6200060a6060830185620005b5565b62000619608083018462000593565b9695505050505050565b60006200062f62000642565b90506200063d828262000736565b919050565b6000604051905090565b600067ffffffffffffffff8211156200066a57620006696200079b565b5b6200067582620007ca565b9050602081019050919050565b60006200068f82620006a0565b9050919050565b6000819050919050565b600073ffffffffffffffffffffffffffffffffffffffff82169050919050565b6000819050919050565b60005b83811015620006ea578082015181840152602081019050620006cd565b83811115620006fa576000848401525b50505050565b600060028204905060018216806200071957607f821691505b6020821081141562000730576200072f6200076c565b5b50919050565b6200074182620007ca565b810181811067ffffffffffffffff821117156200076357620007626200079b565b5b80604052505050565b7f4e487b7100000000000000000000000000000000000000000000000000000000600052602260045260246000fd5b7f4e487b7100000000000000000000000000000000000000000000000000000000600052604160045260246000fd5b6000601f19601f8301169050919050565b620007e681620006c0565b8114620007f257600080fd5b50565b60805160a05160c05160601c60e0516101005161012051614ccb620008486000396000612a3d01526000612a7f01526000612a5e01526000612993015260006129e901526000612a120152614ccb6000f3fe6080604052600436106101b75760003560e01c806370a08231116100ec578063c87b56dd1161008a578063e985e9c511610064578063e985e9c5146105f2578063f2fde38b1461062f578063f43a22dc14610658578063fd301c4914610683576101b7565b8063c87b56dd14610573578063dbddb26a146105b0578063e222c7f9146105db576101b7565b80638da5cb5b116100c65780638da5cb5b146104cb57806395d89b41146104f6578063a22cb46514610521578063b88d4fde1461054a576101b7565b806370a082311461044c578063715018a6146104895780638d859f3e146104a0576101b7565b806332cb6b0c116101595780634f6ccce7116101335780634f6ccce71461038b5780635f89584e146103c85780636352211e146103f35780636d2e98f914610430576101b7565b806332cb6b0c1461031b57806340c10f191461034657806342842e0e14610362576101b7565b8063095ea7b311610195578063095ea7b31461026157806318160ddd1461028a57806323b872dd146102b55780632f745c59146102de576101b7565b806301ffc9a7146101bc57806306fdde03146101f9578063081812fc14610224575b600080fd5b3480156101c857600080fd5b506101e360048036038101906101de9190613391565b6106ae565b6040516101f09190613bee565b60405180910390f35b34801561020557600080fd5b5061020e610728565b60405161021b9190613cca565b60405180910390f35b34801561023057600080fd5b5061024b600480360381019061024691906133e3565b6107ba565b6040516102589190613b87565b60405180910390f35b34801561026d57600080fd5b5061028860048036038101906102839190613355565b61083f565b005b34801561029657600080fd5b5061029f610957565b6040516102ac919061408c565b60405180910390f35b3480156102c157600080fd5b506102dc60048036038101906102d7919061324f565b610964565b005b3480156102ea57600080fd5b5061030560048036038101906103009190613355565b6109c4565b604051610312919061408c565b60405180910390f35b34801561032757600080fd5b50610330610a69565b60405161033d919061408c565b60405180910390f35b610360600480360381019061035b9190613355565b610a6f565b005b34801561036e57600080fd5b506103896004803603810190610384919061324f565b610be1565b005b34801561039757600080fd5b506103b260048036038101906103ad91906133e3565b610c01565b6040516103bf919061408c565b60405180910390f35b3480156103d457600080fd5b506103dd610c98565b6040516103ea9190613bee565b60405180910390f35b3480156103ff57600080fd5b5061041a600480360381019061041591906133e3565b610cab565b6040516104279190613b87565b60405180910390f35b61044a6004803603810190610445919061340c565b610d5d565b005b34801561045857600080fd5b50610473600480360381019061046e91906131ea565b610ec6565b604051610480919061408c565b60405180910390f35b34801561049557600080fd5b5061049e610f7e565b005b3480156104ac57600080fd5b506104b5611006565b6040516104c2919061408c565b60405180910390f35b3480156104d757600080fd5b506104e061100c565b6040516104ed9190613b87565b60405180910390f35b34801561050257600080fd5b5061050b611036565b6040516105189190613cca565b60405180910390f35b34801561052d57600080fd5b5061054860048036038101906105439190613319565b6110c8565b005b34801561055657600080fd5b50610571600480360381019061056c919061329e565b6110de565b005b34801561057f57600080fd5b5061059a600480360381019061059591906133e3565b611140565b6040516105a79190613cca565b60405180910390f35b3480156105bc57600080fd5b506105c56111e7565b6040516105d29190613cca565b60405180910390f35b3480156105e757600080fd5b506105f0611275565b005b3480156105fe57600080fd5b5061061960048036038101906106149190613213565b61131d565b6040516106269190613bee565b60405180910390f35b34801561063b57600080fd5b50610656600480360381019061065191906131ea565b6113b1565b005b34801561066457600080fd5b5061066d6114a9565b60405161067a919061408c565b60405180910390f35b34801561068f57600080fd5b506106986114af565b6040516106a59190613b87565b60405180910390f35b60007f780e9d63000000000000000000000000000000000000000000000000000000007bffffffffffffffffffffffffffffffffffffffffffffffffffffffff1916827bffffffffffffffffffffffffffffffffffffffffffffffffffffffff191614806107215750610720826114d5565b5b9050919050565b6060600080546107379061432e565b80601f01602080910402602001604051908101604052809291908181526020018280546107639061432e565b80156107b05780601f10610785576101008083540402835291602001916107b0565b820191906000526020600020905b81548152906001019060200180831161079357829003601f168201915b5050505050905090565b60006107c5826115b7565b610804576040517f08c379a00000000000000000000000000000000000000000000000000000000081526004016107fb90613f4c565b60405180910390fd5b6004600083815260200190815260200160002060009054906101000a900473ffffffffffffffffffffffffffffffffffffffff169050919050565b600061084a82610cab565b90508073ffffffffffffffffffffffffffffffffffffffff168373ffffffffffffffffffffffffffffffffffffffff1614156108bb576040517f08c379a00000000000000000000000000000000000000000000000000000000081526004016108b290613fec565b60405180910390fd5b8073ffffffffffffffffffffffffffffffffffffffff166108da611623565b73ffffffffffffffffffffffffffffffffffffffff161480610909575061090881610903611623565b61131d565b5b610948576040517f08c379a000000000000000000000000000000000000000000000000000000000815260040161093f90613eac565b60405180910390fd5b610952838361162b565b505050565b6000600880549050905090565b61097561096f611623565b826116e4565b6109b4576040517f08c379a00000000000000000000000000000000000000000000000000000000081526004016109ab9061402c565b60405180910390fd5b6109bf8383836117c2565b505050565b60006109cf83610ec6565b8210610a10576040517f08c379a0000000000000000000000000000000000000000000000000000000008152600401610a0790613d4c565b60405180910390fd5b600660008473ffffffffffffffffffffffffffffffffffffffff1673ffffffffffffffffffffffffffffffffffffffff168152602001908152602001600020600083815260200190815260200160002054905092915050565b600d5481565b60011515601060009054906101000a900460ff16151514610ac5576040517f08c379a0000000000000000000000000000000000000000000000000000000008152600401610abc90613f8c565b60405180910390fd5b600d54610ad0610957565b1115610b11576040517f08c379a0000000000000000000000000000000000000000000000000000000008152600401610b089061406c565b60405180910390fd5b600e54341015610b56576040517f08c379a0000000000000000000000000000000000000000000000000000000008152600401610b4d9061400c565b60405180910390fd5b600f54811115610b9b576040517f08c379a0000000000000000000000000000000000000000000000000000000008152600401610b9290613f6c565b60405180910390fd5b60005b81811015610bdc5760006001610bb2610957565b610bbc91906141a6565b9050610bc88482611a29565b508080610bd490614391565b915050610b9e565b505050565b610bfc838383604051806020016040528060008152506110de565b505050565b6000610c0b610957565b8210610c4c576040517f08c379a0000000000000000000000000000000000000000000000000000000008152600401610c439061404c565b60405180910390fd5b60088281548110610c86577f4e487b7100000000000000000000000000000000000000000000000000000000600052603260045260246000fd5b90600052602060002001549050919050565b601060009054906101000a900460ff1681565b6000806002600084815260200190815260200160002060009054906101000a900473ffffffffffffffffffffffffffffffffffffffff169050600073ffffffffffffffffffffffffffffffffffffffff168173ffffffffffffffffffffffffffffffffffffffff161415610d54576040517f08c379a0000000000000000000000000000000000000000000000000000000008152600401610d4b90613eec565b60405180910390fd5b80915050919050565b600d54610d68610957565b1115610da9576040517f08c379a0000000000000000000000000000000000000000000000000000000008152600401610da09061406c565b60405180910390fd5b600e54341015610dee576040517f08c379a0000000000000000000000000000000000000000000000000000000008152600401610de59061400c565b60405180910390fd5b600f54851115610e33576040517f08c379a0000000000000000000000000000000000000000000000000000000008152600401610e2a90613f6c565b60405180910390fd5b610e3e848483611a47565b610e7d576040517f08c379a0000000000000000000000000000000000000000000000000000000008152600401610e7490613e4c565b60405180910390fd5b60005b85811015610ebe5760006001610e94610957565b610e9e91906141a6565b9050610eaa8482611a29565b508080610eb690614391565b915050610e80565b505050505050565b60008073ffffffffffffffffffffffffffffffffffffffff168273ffffffffffffffffffffffffffffffffffffffff161415610f37576040517f08c379a0000000000000000000000000000000000000000000000000000000008152600401610f2e90613ecc565b60405180910390fd5b600360008373ffffffffffffffffffffffffffffffffffffffff1673ffffffffffffffffffffffffffffffffffffffff168152602001908152602001600020549050919050565b610f86611623565b73ffffffffffffffffffffffffffffffffffffffff16610fa461100c565b73ffffffffffffffffffffffffffffffffffffffff1614610ffa576040517f08c379a0000000000000000000000000000000000000000000000000000000008152600401610ff190613fac565b60405180910390fd5b6110046000611c1e565b565b600e5481565b6000600a60009054906101000a900473ffffffffffffffffffffffffffffffffffffffff16905090565b6060600180546110459061432e565b80601f01602080910402602001604051908101604052809291908181526020018280546110719061432e565b80156110be5780601f10611093576101008083540402835291602001916110be565b820191906000526020600020905b8154815290600101906020018083116110a157829003601f168201915b5050505050905090565b6110da6110d3611623565b8383611ce4565b5050565b6110ef6110e9611623565b836116e4565b61112e576040517f08c379a00000000000000000000000000000000000000000000000000000000081526004016111259061402c565b60405180910390fd5b61113a84848484611e51565b50505050565b606061114b826115b7565b61118a576040517f08c379a000000000000000000000000000000000000000000000000000000000815260040161118190613fcc565b60405180910390fd5b6000611194611ead565b905060008151116111b457604051806020016040528060008152506111df565b806111be84611ed5565b6040516020016111cf929190613b0a565b6040516020818303038152906040525b915050919050565b600c80546111f49061432e565b80601f01602080910402602001604051908101604052809291908181526020018280546112209061432e565b801561126d5780601f106112425761010080835404028352916020019161126d565b820191906000526020600020905b81548152906001019060200180831161125057829003601f168201915b505050505081565b61127d611623565b73ffffffffffffffffffffffffffffffffffffffff1661129b61100c565b73ffffffffffffffffffffffffffffffffffffffff16146112f1576040517f08c379a00000000000000000000000000000000000000000000000000000000081526004016112e890613fac565b60405180910390fd5b601060009054906101000a900460ff1615601060006101000a81548160ff021916908315150217905550565b6000600560008473ffffffffffffffffffffffffffffffffffffffff1673ffffffffffffffffffffffffffffffffffffffff16815260200190815260200160002060008373ffffffffffffffffffffffffffffffffffffffff1673ffffffffffffffffffffffffffffffffffffffff16815260200190815260200160002060009054906101000a900460ff16905092915050565b6113b9611623565b73ffffffffffffffffffffffffffffffffffffffff166113d761100c565b73ffffffffffffffffffffffffffffffffffffffff161461142d576040517f08c379a000000000000000000000000000000000000000000000000000000000815260040161142490613fac565b60405180910390fd5b600073ffffffffffffffffffffffffffffffffffffffff168173ffffffffffffffffffffffffffffffffffffffff16141561149d576040517f08c379a000000000000000000000000000000000000000000000000000000000815260040161149490613dac565b60405180910390fd5b6114a681611c1e565b50565b600f5481565b601060019054906101000a900473ffffffffffffffffffffffffffffffffffffffff1681565b60007f80ac58cd000000000000000000000000000000000000000000000000000000007bffffffffffffffffffffffffffffffffffffffffffffffffffffffff1916827bffffffffffffffffffffffffffffffffffffffffffffffffffffffff191614806115a057507f5b5e139f000000000000000000000000000000000000000000000000000000007bffffffffffffffffffffffffffffffffffffffffffffffffffffffff1916827bffffffffffffffffffffffffffffffffffffffffffffffffffffffff1916145b806115b057506115af82612082565b5b9050919050565b60008073ffffffffffffffffffffffffffffffffffffffff166002600084815260200190815260200160002060009054906101000a900473ffffffffffffffffffffffffffffffffffffffff1673ffffffffffffffffffffffffffffffffffffffff1614159050919050565b600033905090565b816004600083815260200190815260200160002060006101000a81548173ffffffffffffffffffffffffffffffffffffffff021916908373ffffffffffffffffffffffffffffffffffffffff160217905550808273ffffffffffffffffffffffffffffffffffffffff1661169e83610cab565b73ffffffffffffffffffffffffffffffffffffffff167f8c5be1e5ebec7d5bd14f71427d1e84f3dd0314c0f7b2291e5b200ac8c7c3b92560405160405180910390a45050565b60006116ef826115b7565b61172e576040517f08c379a000000000000000000000000000000000000000000000000000000000815260040161172590613e8c565b60405180910390fd5b600061173983610cab565b90508073ffffffffffffffffffffffffffffffffffffffff168473ffffffffffffffffffffffffffffffffffffffff16148061177b575061177a818561131d565b5b806117b957508373ffffffffffffffffffffffffffffffffffffffff166117a1846107ba565b73ffffffffffffffffffffffffffffffffffffffff16145b91505092915050565b8273ffffffffffffffffffffffffffffffffffffffff166117e282610cab565b73ffffffffffffffffffffffffffffffffffffffff1614611838576040517f08c379a000000000000000000000000000000000000000000000000000000000815260040161182f90613dcc565b60405180910390fd5b600073ffffffffffffffffffffffffffffffffffffffff168273ffffffffffffffffffffffffffffffffffffffff1614156118a8576040517f08c379a000000000000000000000000000000000000000000000000000000000815260040161189f90613e0c565b60405180910390fd5b6118b38383836120ec565b6118be60008261162b565b6001600360008573ffffffffffffffffffffffffffffffffffffffff1673ffffffffffffffffffffffffffffffffffffffff168152602001908152602001600020600082825461190e919061422d565b925050819055506001600360008473ffffffffffffffffffffffffffffffffffffffff1673ffffffffffffffffffffffffffffffffffffffff168152602001908152602001600020600082825461196591906141a6565b92505081905550816002600083815260200190815260200160002060006101000a81548173ffffffffffffffffffffffffffffffffffffffff021916908373ffffffffffffffffffffffffffffffffffffffff160217905550808273ffffffffffffffffffffffffffffffffffffffff168473ffffffffffffffffffffffffffffffffffffffff167fddf252ad1be2c89b69c2b068fc378daa952ba7f163c4a11628f55a4df523b3ef60405160405180910390a4611a24838383612200565b505050565b611a43828260405180602001604052806000815250612205565b5050565b600080611a9f7f4b09c67784ff090ad02a974e26b65a981223b6af77ea3b1671c00cd8a776b44c8660000151604051602001611a84929190613c09565b60405160208183030381529060405280519060200120612260565b9050600b604051611ab09190613af3565b604051809103902083805190602001201415611b01576040517f08c379a0000000000000000000000000000000000000000000000000000000008152600401611af890613d2c565b60405180910390fd5b846000015173ffffffffffffffffffffffffffffffffffffffff163373ffffffffffffffffffffffffffffffffffffffff1614611b73576040517f08c379a0000000000000000000000000000000000000000000000000000000008152600401611b6a90613d8c565b60405180910390fd5b6000611b7f828661227a565b90508073ffffffffffffffffffffffffffffffffffffffff16601060019054906101000a900473ffffffffffffffffffffffffffffffffffffffff1673ffffffffffffffffffffffffffffffffffffffff1614611c11576040517f08c379a0000000000000000000000000000000000000000000000000000000008152600401611c0890613e4c565b60405180910390fd5b6001925050509392505050565b6000600a60009054906101000a900473ffffffffffffffffffffffffffffffffffffffff16905081600a60006101000a81548173ffffffffffffffffffffffffffffffffffffffff021916908373ffffffffffffffffffffffffffffffffffffffff1602179055508173ffffffffffffffffffffffffffffffffffffffff168173ffffffffffffffffffffffffffffffffffffffff167f8be0079c531659141344cd1fd0a4f28419497f9722a3daafe3b4186f6b6457e060405160405180910390a35050565b8173ffffffffffffffffffffffffffffffffffffffff168373ffffffffffffffffffffffffffffffffffffffff161415611d53576040517f08c379a0000000000000000000000000000000000000000000000000000000008152600401611d4a90613e2c565b60405180910390fd5b80600560008573ffffffffffffffffffffffffffffffffffffffff1673ffffffffffffffffffffffffffffffffffffffff16815260200190815260200160002060008473ffffffffffffffffffffffffffffffffffffffff1673ffffffffffffffffffffffffffffffffffffffff16815260200190815260200160002060006101000a81548160ff0219169083151502179055508173ffffffffffffffffffffffffffffffffffffffff168373ffffffffffffffffffffffffffffffffffffffff167f17307eab39ab6107e8899845ad3d59bd9653f200f220920489ca2b5937696c3183604051611e449190613bee565b60405180910390a3505050565b611e5c8484846117c2565b611e68848484846122a1565b611ea7576040517f08c379a0000000000000000000000000000000000000000000000000000000008152600401611e9e90613d6c565b60405180910390fd5b50505050565b6060600c604051602001611ec19190613b2e565b604051602081830303815290604052905090565b60606000821415611f1d576040518060400160405280600181526020017f3000000000000000000000000000000000000000000000000000000000000000815250905061207d565b600082905060005b60008214611f4f578080611f3890614391565b915050600a82611f4891906141fc565b9150611f25565b60008167ffffffffffffffff811115611f91577f4e487b7100000000000000000000000000000000000000000000000000000000600052604160045260246000fd5b6040519080825280601f01601f191660200182016040528015611fc35781602001600182028036833780820191505090505b5090505b6000851461207657600182611fdc919061422d565b9150600a85611feb91906143e4565b6030611ff791906141a6565b60f81b818381518110612033577f4e487b7100000000000000000000000000000000000000000000000000000000600052603260045260246000fd5b60200101907effffffffffffffffffffffffffffffffffffffffffffffffffffffffffffff1916908160001a905350600a8561206f91906141fc565b9450611fc7565b8093505050505b919050565b60007f01ffc9a7000000000000000000000000000000000000000000000000000000007bffffffffffffffffffffffffffffffffffffffffffffffffffffffff1916827bffffffffffffffffffffffffffffffffffffffffffffffffffffffff1916149050919050565b6120f7838383612438565b600073ffffffffffffffffffffffffffffffffffffffff168373ffffffffffffffffffffffffffffffffffffffff16141561213a576121358161243d565b612179565b8173ffffffffffffffffffffffffffffffffffffffff168373ffffffffffffffffffffffffffffffffffffffff1614612178576121778382612486565b5b5b600073ffffffffffffffffffffffffffffffffffffffff168273ffffffffffffffffffffffffffffffffffffffff1614156121bc576121b7816125f3565b6121fb565b8273ffffffffffffffffffffffffffffffffffffffff168273ffffffffffffffffffffffffffffffffffffffff16146121fa576121f98282612736565b5b5b505050565b505050565b61220f83836127b5565b61221c60008484846122a1565b61225b576040517f08c379a000000000000000000000000000000000000000000000000000000000815260040161225290613d6c565b60405180910390fd5b505050565b600061227361226d61298f565b83612aa9565b9050919050565b60008060006122898585612adc565b9150915061229681612b5f565b819250505092915050565b60006122c28473ffffffffffffffffffffffffffffffffffffffff16612eb0565b1561242b578373ffffffffffffffffffffffffffffffffffffffff1663150b7a026122eb611623565b8786866040518563ffffffff1660e01b815260040161230d9493929190613ba2565b602060405180830381600087803b15801561232757600080fd5b505af192505050801561235857506040513d601f19601f8201168201806040525081019061235591906133ba565b60015b6123db573d8060008114612388576040519150601f19603f3d011682016040523d82523d6000602084013e61238d565b606091505b506000815114156123d3576040517f08c379a00000000000000000000000000000000000000000000000000000000081526004016123ca90613d6c565b60405180910390fd5b805181602001fd5b63150b7a0260e01b7bffffffffffffffffffffffffffffffffffffffffffffffffffffffff1916817bffffffffffffffffffffffffffffffffffffffffffffffffffffffff191614915050612430565b600190505b949350505050565b505050565b6008805490506009600083815260200190815260200160002081905550600881908060018154018082558091505060019003906000526020600020016000909190919091505550565b6000600161249384610ec6565b61249d919061422d565b9050600060076000848152602001908152602001600020549050818114612582576000600660008673ffffffffffffffffffffffffffffffffffffffff1673ffffffffffffffffffffffffffffffffffffffff168152602001908152602001600020600084815260200190815260200160002054905080600660008773ffffffffffffffffffffffffffffffffffffffff1673ffffffffffffffffffffffffffffffffffffffff168152602001908152602001600020600084815260200190815260200160002081905550816007600083815260200190815260200160002081905550505b6007600084815260200190815260200160002060009055600660008573ffffffffffffffffffffffffffffffffffffffff1673ffffffffffffffffffffffffffffffffffffffff16815260200190815260200160002060008381526020019081526020016000206000905550505050565b60006001600880549050612607919061422d565b905060006009600084815260200190815260200160002054905060006008838154811061265d577f4e487b7100000000000000000000000000000000000000000000000000000000600052603260045260246000fd5b9060005260206000200154905080600883815481106126a5577f4e487b7100000000000000000000000000000000000000000000000000000000600052603260045260246000fd5b90600052602060002001819055508160096000838152602001908152602001600020819055506009600085815260200190815260200160002060009055600880548061271a577f4e487b7100000000000000000000000000000000000000000000000000000000600052603160045260246000fd5b6001900381819060005260206000200160009055905550505050565b600061274183610ec6565b905081600660008573ffffffffffffffffffffffffffffffffffffffff1673ffffffffffffffffffffffffffffffffffffffff168152602001908152602001600020600083815260200190815260200160002081905550806007600084815260200190815260200160002081905550505050565b600073ffffffffffffffffffffffffffffffffffffffff168273ffffffffffffffffffffffffffffffffffffffff161415612825576040517f08c379a000000000000000000000000000000000000000000000000000000000815260040161281c90613f2c565b60405180910390fd5b61282e816115b7565b1561286e576040517f08c379a000000000000000000000000000000000000000000000000000000000815260040161286590613dec565b60405180910390fd5b61287a600083836120ec565b6001600360008473ffffffffffffffffffffffffffffffffffffffff1673ffffffffffffffffffffffffffffffffffffffff16815260200190815260200160002060008282546128ca91906141a6565b92505081905550816002600083815260200190815260200160002060006101000a81548173ffffffffffffffffffffffffffffffffffffffff021916908373ffffffffffffffffffffffffffffffffffffffff160217905550808273ffffffffffffffffffffffffffffffffffffffff16600073ffffffffffffffffffffffffffffffffffffffff167fddf252ad1be2c89b69c2b068fc378daa952ba7f163c4a11628f55a4df523b3ef60405160405180910390a461298b60008383612200565b5050565b60007f000000000000000000000000000000000000000000000000000000000000000073ffffffffffffffffffffffffffffffffffffffff163073ffffffffffffffffffffffffffffffffffffffff16148015612a0b57507f000000000000000000000000000000000000000000000000000000000000000046145b15612a38577f00000000000000000000000000000000000000000000000000000000000000009050612aa6565b612aa37f00000000000000000000000000000000000000000000000000000000000000007f00000000000000000000000000000000000000000000000000000000000000007f0000000000000000000000000000000000000000000000000000000000000000612ed3565b90505b90565b60008282604051602001612abe929190613b50565b60405160208183030381529060405280519060200120905092915050565b600080604183511415612b1e5760008060006020860151925060408601519150606086015160001a9050612b1287828585612f0d565b94509450505050612b58565b604083511415612b4f576000806020850151915060408501519050612b4486838361301a565b935093505050612b58565b60006002915091505b9250929050565b60006004811115612b99577f4e487b7100000000000000000000000000000000000000000000000000000000600052602160045260246000fd5b816004811115612bd2577f4e487b7100000000000000000000000000000000000000000000000000000000600052602160045260246000fd5b1415612bdd57612ead565b60016004811115612c17577f4e487b7100000000000000000000000000000000000000000000000000000000600052602160045260246000fd5b816004811115612c50577f4e487b7100000000000000000000000000000000000000000000000000000000600052602160045260246000fd5b1415612c91576040517f08c379a0000000000000000000000000000000000000000000000000000000008152600401612c8890613cec565b60405180910390fd5b60026004811115612ccb577f4e487b7100000000000000000000000000000000000000000000000000000000600052602160045260246000fd5b816004811115612d04577f4e487b7100000000000000000000000000000000000000000000000000000000600052602160045260246000fd5b1415612d45576040517f08c379a0000000000000000000000000000000000000000000000000000000008152600401612d3c90613d0c565b60405180910390fd5b60036004811115612d7f577f4e487b7100000000000000000000000000000000000000000000000000000000600052602160045260246000fd5b816004811115612db8577f4e487b7100000000000000000000000000000000000000000000000000000000600052602160045260246000fd5b1415612df9576040517f08c379a0000000000000000000000000000000000000000000000000000000008152600401612df090613e6c565b60405180910390fd5b600480811115612e32577f4e487b7100000000000000000000000000000000000000000000000000000000600052602160045260246000fd5b816004811115612e6b577f4e487b7100000000000000000000000000000000000000000000000000000000600052602160045260246000fd5b1415612eac576040517f08c379a0000000000000000000000000000000000000000000000000000000008152600401612ea390613f0c565b60405180910390fd5b5b50565b6000808273ffffffffffffffffffffffffffffffffffffffff163b119050919050565b60008383834630604051602001612eee959493929190613c32565b6040516020818303038152906040528051906020012090509392505050565b6000807f7fffffffffffffffffffffffffffffff5d576e7357a4501ddfe92f46681b20a08360001c1115612f48576000600391509150613011565b601b8560ff1614158015612f605750601c8560ff1614155b15612f72576000600491509150613011565b600060018787878760405160008152602001604052604051612f979493929190613c85565b6020604051602081039080840390855afa158015612fb9573d6000803e3d6000fd5b505050602060405103519050600073ffffffffffffffffffffffffffffffffffffffff168173ffffffffffffffffffffffffffffffffffffffff16141561300857600060019250925050613011565b80600092509250505b94509492505050565b60008060007f7fffffffffffffffffffffffffffffffffffffffffffffffffffffffffffffff60001b841690506000601b60ff8660001c901c61305d91906141a6565b905061306b87828885612f0d565b935093505050935093915050565b600061308c613087846140cc565b6140a7565b9050828152602081018484840111156130a457600080fd5b6130af8482856142ec565b509392505050565b60006130ca6130c5846140fd565b6140a7565b9050828152602081018484840111156130e257600080fd5b6130ed8482856142ec565b509392505050565b60008135905061310481614c39565b92915050565b60008135905061311981614c50565b92915050565b60008135905061312e81614c67565b92915050565b60008151905061314381614c67565b92915050565b600082601f83011261315a57600080fd5b813561316a848260208601613079565b91505092915050565b600082601f83011261318457600080fd5b81356131948482602086016130b7565b91505092915050565b6000602082840312156131af57600080fd5b6131b960206140a7565b905060006131c9848285016130f5565b60008301525092915050565b6000813590506131e481614c7e565b92915050565b6000602082840312156131fc57600080fd5b600061320a848285016130f5565b91505092915050565b6000806040838503121561322657600080fd5b6000613234858286016130f5565b9250506020613245858286016130f5565b9150509250929050565b60008060006060848603121561326457600080fd5b6000613272868287016130f5565b9350506020613283868287016130f5565b9250506040613294868287016131d5565b9150509250925092565b600080600080608085870312156132b457600080fd5b60006132c2878288016130f5565b94505060206132d3878288016130f5565b93505060406132e4878288016131d5565b925050606085013567ffffffffffffffff81111561330157600080fd5b61330d87828801613149565b91505092959194509250565b6000806040838503121561332c57600080fd5b600061333a858286016130f5565b925050602061334b8582860161310a565b9150509250929050565b6000806040838503121561336857600080fd5b6000613376858286016130f5565b9250506020613387858286016131d5565b9150509250929050565b6000602082840312156133a357600080fd5b60006133b18482850161311f565b91505092915050565b6000602082840312156133cc57600080fd5b60006133da84828501613134565b91505092915050565b6000602082840312156133f557600080fd5b6000613403848285016131d5565b91505092915050565b600080600080600060a0868803121561342457600080fd5b6000613432888289016131d5565b95505060206134438882890161319d565b945050604086013567ffffffffffffffff81111561346057600080fd5b61346c88828901613149565b935050606061347d888289016130f5565b925050608086013567ffffffffffffffff81111561349a57600080fd5b6134a688828901613173565b9150509295509295909350565b6134bc81614261565b82525050565b6134cb81614273565b82525050565b6134da8161427f565b82525050565b6134f16134ec8261427f565b6143da565b82525050565b600061350282614158565b61350c818561416e565b935061351c8185602086016142fb565b613525816144d1565b840191505092915050565b6000815461353d8161432e565b613547818661417f565b945060018216600081146135625760018114613573576135a6565b60ff198316865281860193506135a6565b61357c8561412e565b60005b8381101561359e5781548189015260018201915060208101905061357f565b838801955050505b50505092915050565b60006135ba82614163565b6135c4818561418a565b93506135d48185602086016142fb565b6135dd816144d1565b840191505092915050565b60006135f382614163565b6135fd818561419b565b935061360d8185602086016142fb565b80840191505092915050565b600081546136268161432e565b613630818661419b565b9450600182166000811461364b576001811461365c5761368f565b60ff1983168652818601935061368f565b61366585614143565b60005b8381101561368757815481890152600182019150602081019050613668565b838801955050505b50505092915050565b60006136a560188361418a565b91506136b0826144e2565b602082019050919050565b60006136c8601f8361418a565b91506136d38261450b565b602082019050919050565b60006136eb600d8361418a565b91506136f682614534565b602082019050919050565b600061370e602b8361418a565b91506137198261455d565b604082019050919050565b600061373160328361418a565b915061373c826145ac565b604082019050919050565b600061375460118361418a565b915061375f826145fb565b602082019050919050565b600061377760268361418a565b915061378282614624565b604082019050919050565b600061379a60258361418a565b91506137a582614673565b604082019050919050565b60006137bd601c8361418a565b91506137c8826146c2565b602082019050919050565b60006137e060028361419b565b91506137eb826146eb565b600282019050919050565b600061380360248361418a565b915061380e82614714565b604082019050919050565b600061382660198361418a565b915061383182614763565b602082019050919050565b600061384960118361418a565b91506138548261478c565b602082019050919050565b600061386c60228361418a565b9150613877826147b5565b604082019050919050565b600061388f602c8361418a565b915061389a82614804565b604082019050919050565b60006138b260388361418a565b91506138bd82614853565b604082019050919050565b60006138d5602a8361418a565b91506138e0826148a2565b604082019050919050565b60006138f860298361418a565b9150613903826148f1565b604082019050919050565b600061391b60228361418a565b915061392682614940565b604082019050919050565b600061393e60208361418a565b91506139498261498f565b602082019050919050565b6000613961602c8361418a565b915061396c826149b8565b604082019050919050565b600061398460158361418a565b915061398f82614a07565b602082019050919050565b60006139a760168361418a565b91506139b282614a30565b602082019050919050565b60006139ca60208361418a565b91506139d582614a59565b602082019050919050565b60006139ed602f8361418a565b91506139f882614a82565b604082019050919050565b6000613a1060218361418a565b9150613a1b82614ad1565b604082019050919050565b6000613a3360128361418a565b9150613a3e82614b20565b602082019050919050565b6000613a5660318361418a565b9150613a6182614b49565b604082019050919050565b6000613a79602c8361418a565b9150613a8482614b98565b604082019050919050565b6000613a9c60178361418a565b9150613aa782614be7565b602082019050919050565b6000613abf60018361419b565b9150613aca82614c10565b600182019050919050565b613ade816142d5565b82525050565b613aed816142df565b82525050565b6000613aff8284613530565b915081905092915050565b6000613b1682856135e8565b9150613b2282846135e8565b91508190509392505050565b6000613b3a8284613619565b9150613b4582613ab2565b915081905092915050565b6000613b5b826137d3565b9150613b6782856134e0565b602082019150613b7782846134e0565b6020820191508190509392505050565b6000602082019050613b9c60008301846134b3565b92915050565b6000608082019050613bb760008301876134b3565b613bc460208301866134b3565b613bd16040830185613ad5565b8181036060830152613be381846134f7565b905095945050505050565b6000602082019050613c0360008301846134c2565b92915050565b6000604082019050613c1e60008301856134d1565b613c2b60208301846134b3565b9392505050565b600060a082019050613c4760008301886134d1565b613c5460208301876134d1565b613c6160408301866134d1565b613c6e6060830185613ad5565b613c7b60808301846134b3565b9695505050505050565b6000608082019050613c9a60008301876134d1565b613ca76020830186613ae4565b613cb460408301856134d1565b613cc160608301846134d1565b95945050505050565b60006020820190508181036000830152613ce481846135af565b905092915050565b60006020820190508181036000830152613d0581613698565b9050919050565b60006020820190508181036000830152613d25816136bb565b9050919050565b60006020820190508181036000830152613d45816136de565b9050919050565b60006020820190508181036000830152613d6581613701565b9050919050565b60006020820190508181036000830152613d8581613724565b9050919050565b60006020820190508181036000830152613da581613747565b9050919050565b60006020820190508181036000830152613dc58161376a565b9050919050565b60006020820190508181036000830152613de58161378d565b9050919050565b60006020820190508181036000830152613e05816137b0565b9050919050565b60006020820190508181036000830152613e25816137f6565b9050919050565b60006020820190508181036000830152613e4581613819565b9050919050565b60006020820190508181036000830152613e658161383c565b9050919050565b60006020820190508181036000830152613e858161385f565b9050919050565b60006020820190508181036000830152613ea581613882565b9050919050565b60006020820190508181036000830152613ec5816138a5565b9050919050565b60006020820190508181036000830152613ee5816138c8565b9050919050565b60006020820190508181036000830152613f05816138eb565b9050919050565b60006020820190508181036000830152613f258161390e565b9050919050565b60006020820190508181036000830152613f4581613931565b9050919050565b60006020820190508181036000830152613f6581613954565b9050919050565b60006020820190508181036000830152613f8581613977565b9050919050565b60006020820190508181036000830152613fa58161399a565b9050919050565b60006020820190508181036000830152613fc5816139bd565b9050919050565b60006020820190508181036000830152613fe5816139e0565b9050919050565b6000602082019050818103600083015261400581613a03565b9050919050565b6000602082019050818103600083015261402581613a26565b9050919050565b6000602082019050818103600083015261404581613a49565b9050919050565b6000602082019050818103600083015261406581613a6c565b9050919050565b6000602082019050818103600083015261408581613a8f565b9050919050565b60006020820190506140a16000830184613ad5565b92915050565b60006140b16140c2565b90506140bd8282614360565b919050565b6000604051905090565b600067ffffffffffffffff8211156140e7576140e66144a2565b5b6140f0826144d1565b9050602081019050919050565b600067ffffffffffffffff821115614118576141176144a2565b5b614121826144d1565b9050602081019050919050565b60008190508160005260206000209050919050565b60008190508160005260206000209050919050565b600081519050919050565b600081519050919050565b600082825260208201905092915050565b600081905092915050565b600082825260208201905092915050565b600081905092915050565b60006141b1826142d5565b91506141bc836142d5565b9250827fffffffffffffffffffffffffffffffffffffffffffffffffffffffffffffffff038211156141f1576141f0614415565b5b828201905092915050565b6000614207826142d5565b9150614212836142d5565b92508261422257614221614444565b5b828204905092915050565b6000614238826142d5565b9150614243836142d5565b92508282101561425657614255614415565b5b828203905092915050565b600061426c826142b5565b9050919050565b60008115159050919050565b6000819050919050565b60007fffffffff0000000000000000000000000000000000000000000000000000000082169050919050565b600073ffffffffffffffffffffffffffffffffffffffff82169050919050565b6000819050919050565b600060ff82169050919050565b82818337600083830152505050565b60005b838110156143195780820151818401526020810190506142fe565b83811115614328576000848401525b50505050565b6000600282049050600182168061434657607f821691505b6020821081141561435a57614359614473565b5b50919050565b614369826144d1565b810181811067ffffffffffffffff82111715614388576143876144a2565b5b80604052505050565b600061439c826142d5565b91507fffffffffffffffffffffffffffffffffffffffffffffffffffffffffffffffff8214156143cf576143ce614415565b5b600182019050919050565b6000819050919050565b60006143ef826142d5565b91506143fa836142d5565b92508261440a57614409614444565b5b828206905092915050565b7f4e487b7100000000000000000000000000000000000000000000000000000000600052601160045260246000fd5b7f4e487b7100000000000000000000000000000000000000000000000000000000600052601260045260246000fd5b7f4e487b7100000000000000000000000000000000000000000000000000000000600052602260045260246000fd5b7f4e487b7100000000000000000000000000000000000000000000000000000000600052604160045260246000fd5b6000601f19601f8301169050919050565b7f45434453413a20696e76616c6964207369676e61747572650000000000000000600082015250565b7f45434453413a20696e76616c6964207369676e6174757265206c656e67746800600082015250565b7f496e76616c6964206e6f6e636500000000000000000000000000000000000000600082015250565b7f455243373231456e756d657261626c653a206f776e657220696e646578206f7560008201527f74206f6620626f756e6473000000000000000000000000000000000000000000602082015250565b7f4552433732313a207472616e7366657220746f206e6f6e20455243373231526560008201527f63656976657220696d706c656d656e7465720000000000000000000000000000602082015250565b7f4e6f74206f6e20616c6c6f77206c697374000000000000000000000000000000600082015250565b7f4f776e61626c653a206e6577206f776e657220697320746865207a65726f206160008201527f6464726573730000000000000000000000000000000000000000000000000000602082015250565b7f4552433732313a207472616e736665722066726f6d20696e636f72726563742060008201527f6f776e6572000000000000000000000000000000000000000000000000000000602082015250565b7f4552433732313a20746f6b656e20616c7265616479206d696e74656400000000600082015250565b7f1901000000000000000000000000000000000000000000000000000000000000600082015250565b7f4552433732313a207472616e7366657220746f20746865207a65726f2061646460008201527f7265737300000000000000000000000000000000000000000000000000000000602082015250565b7f4552433732313a20617070726f766520746f2063616c6c657200000000000000600082015250565b7f496e76616c6964207369676e6174757265000000000000000000000000000000600082015250565b7f45434453413a20696e76616c6964207369676e6174757265202773272076616c60008201527f7565000000000000000000000000000000000000000000000000000000000000602082015250565b7f4552433732313a206f70657261746f7220717565727920666f72206e6f6e657860008201527f697374656e7420746f6b656e0000000000000000000000000000000000000000602082015250565b7f4552433732313a20617070726f76652063616c6c6572206973206e6f74206f7760008201527f6e6572206e6f7220617070726f76656420666f7220616c6c0000000000000000602082015250565b7f4552433732313a2062616c616e636520717565727920666f7220746865207a6560008201527f726f206164647265737300000000000000000000000000000000000000000000602082015250565b7f4552433732313a206f776e657220717565727920666f72206e6f6e657869737460008201527f656e7420746f6b656e0000000000000000000000000000000000000000000000602082015250565b7f45434453413a20696e76616c6964207369676e6174757265202776272076616c60008201527f7565000000000000000000000000000000000000000000000000000000000000602082015250565b7f4552433732313a206d696e7420746f20746865207a65726f2061646472657373600082015250565b7f4552433732313a20617070726f76656420717565727920666f72206e6f6e657860008201527f697374656e7420746f6b656e0000000000000000000000000000000000000000602082015250565b7f63616e6e6f74206d696e742074686174206d616e790000000000000000000000600082015250565b7f5075626c69632073616c65206e6f742061637469766500000000000000000000600082015250565b7f4f776e61626c653a2063616c6c6572206973206e6f7420746865206f776e6572600082015250565b7f4552433732314d657461646174613a2055524920717565727920666f72206e6f60008201527f6e6578697374656e7420746f6b656e0000000000000000000000000000000000602082015250565b7f4552433732313a20617070726f76616c20746f2063757272656e74206f776e6560008201527f7200000000000000000000000000000000000000000000000000000000000000602082015250565b7f696e73756666696369656e742066756e64730000000000000000000000000000600082015250565b7f4552433732313a207472616e736665722063616c6c6572206973206e6f74206f60008201527f776e6572206e6f7220617070726f766564000000000000000000000000000000602082015250565b7f455243373231456e756d657261626c653a20676c6f62616c20696e646578206f60008201527f7574206f6620626f756e64730000000000000000000000000000000000000000602082015250565b7f576f756c6420657863656564206d617820737570706c79000000000000000000600082015250565b7f2f00000000000000000000000000000000000000000000000000000000000000600082015250565b614c4281614261565b8114614c4d57600080fd5b50565b614c5981614273565b8114614c6457600080fd5b50565b614c7081614289565b8114614c7b57600080fd5b50565b614c87816142d5565b8114614c9257600080fd5b5056fea264697066735822122002812f9f7e271bf6525302bb93bd8665101f65b38640464dbb0dcbdd3aa6518064736f6c63430008040033",
  "linkReferences": {},
  "deployedLinkReferences": {}
}