{
  "_format": "hh-sol-artifact-1",
  "contractName": "BASEERC721",
  "sourceName": "contracts/Base_ERC721.sol",
  "abi": [
    {
      "inputs": [
        {
          "internalType": "string",
          "name": "baseURI",
          "type": "string"
        },
        {
          "internalType": "uint256",
          "name": "max_per_tx",
          "type": "uint256"
        },
        {
          "internalType": "string",
          "name": "name",
          "type": "string"
        },
        {
          "internalType": "string",
          "name": "symbol",
          "type": "string"
        }
      ],
      "stateMutability": "nonpayable",
      "type": "constructor"
    },
    {
      "anonymous": false,
      "inputs": [
        {
          "indexed": true,
          "internalType": "address",
          "name": "owner",
          "type": "address"
        },
        {
          "indexed": true,
          "internalType": "address",
          "name": "approved",
          "type": "address"
        },
        {
          "indexed": true,
          "internalType": "uint256",
          "name": "tokenId",
          "type": "uint256"
        }
      ],
      "name": "Approval",
      "type": "event"
    },
    {
      "anonymous": false,
      "inputs": [
        {
          "indexed": true,
          "internalType": "address",
          "name": "owner",
          "type": "address"
        },
        {
          "indexed": true,
          "internalType": "address",
          "name": "operator",
          "type": "address"
        },
        {
          "indexed": false,
          "internalType": "bool",
          "name": "approved",
          "type": "bool"
        }
      ],
      "name": "ApprovalForAll",
      "type": "event"
    },
    {
      "anonymous": false,
      "inputs": [
        {
          "indexed": true,
          "internalType": "address",
          "name": "previousOwner",
          "type": "address"
        },
        {
          "indexed": true,
          "internalType": "address",
          "name": "newOwner",
          "type": "address"
        }
      ],
      "name": "OwnershipTransferred",
      "type": "event"
    },
    {
      "anonymous": false,
      "inputs": [
        {
          "indexed": true,
          "internalType": "address",
          "name": "from",
          "type": "address"
        },
        {
          "indexed": true,
          "internalType": "address",
          "name": "to",
          "type": "address"
        },
        {
          "indexed": true,
          "internalType": "uint256",
          "name": "tokenId",
          "type": "uint256"
        }
      ],
      "name": "Transfer",
      "type": "event"
    },
    {
      "inputs": [],
      "name": "BASE_URI",
      "outputs": [
        {
          "internalType": "string",
          "name": "",
          "type": "string"
        }
      ],
      "stateMutability": "view",
      "type": "function"
    },
    {
      "inputs": [],
      "name": "CONTRACT_OWNER",
      "outputs": [
        {
          "internalType": "address",
          "name": "",
          "type": "address"
        }
      ],
      "stateMutability": "view",
      "type": "function"
    },
    {
      "inputs": [],
      "name": "MAX_PER_TX",
      "outputs": [
        {
          "internalType": "uint256",
          "name": "",
          "type": "uint256"
        }
      ],
      "stateMutability": "view",
      "type": "function"
    },
    {
      "inputs": [],
      "name": "MAX_SUPPLY",
      "outputs": [
        {
          "internalType": "uint256",
          "name": "",
          "type": "uint256"
        }
      ],
      "stateMutability": "view",
      "type": "function"
    },
    {
      "inputs": [],
      "name": "PRICE",
      "outputs": [
        {
          "internalType": "uint256",
          "name": "",
          "type": "uint256"
        }
      ],
      "stateMutability": "view",
      "type": "function"
    },
    {
      "inputs": [],
      "name": "PUBLIC_SALE",
      "outputs": [
        {
          "internalType": "bool",
          "name": "",
          "type": "bool"
        }
      ],
      "stateMutability": "view",
      "type": "function"
    },
    {
      "inputs": [
        {
          "internalType": "address",
          "name": "to",
          "type": "address"
        },
        {
          "internalType": "uint256",
          "name": "tokenId",
          "type": "uint256"
        }
      ],
      "name": "approve",
      "outputs": [],
      "stateMutability": "nonpayable",
      "type": "function"
    },
    {
      "inputs": [
        {
          "internalType": "address",
          "name": "owner",
          "type": "address"
        }
      ],
      "name": "balanceOf",
      "outputs": [
        {
          "internalType": "uint256",
          "name": "",
          "type": "uint256"
        }
      ],
      "stateMutability": "view",
      "type": "function"
    },
    {
      "inputs": [
        {
          "internalType": "uint256",
          "name": "tokenId",
          "type": "uint256"
        }
      ],
      "name": "getApproved",
      "outputs": [
        {
          "internalType": "address",
          "name": "",
          "type": "address"
        }
      ],
      "stateMutability": "view",
      "type": "function"
    },
    {
      "inputs": [
        {
          "internalType": "address",
          "name": "owner",
          "type": "address"
        },
        {
          "internalType": "address",
          "name": "operator",
          "type": "address"
        }
      ],
      "name": "isApprovedForAll",
      "outputs": [
        {
          "internalType": "bool",
          "name": "",
          "type": "bool"
        }
      ],
      "stateMutability": "view",
      "type": "function"
    },
    {
      "inputs": [
        {
          "internalType": "address",
          "name": "addr",
          "type": "address"
        },
        {
          "internalType": "uint256",
          "name": "quantity",
          "type": "uint256"
        }
      ],
      "name": "mint",
      "outputs": [],
      "stateMutability": "payable",
      "type": "function"
    },
    {
      "inputs": [
        {
          "internalType": "uint256",
          "name": "quantity",
          "type": "uint256"
        },
        {
          "components": [
            {
              "internalType": "address",
              "name": "allow",
              "type": "address"
            }
          ],
          "internalType": "struct BASEERC721.AllowList",
          "name": "dataToVerify",
          "type": "tuple"
        },
        {
          "internalType": "bytes",
          "name": "signature",
          "type": "bytes"
        },
        {
          "internalType": "address",
          "name": "addr",
          "type": "address"
        }
      ],
      "name": "mintAllowList",
      "outputs": [],
      "stateMutability": "payable",
      "type": "function"
    },
    {
      "inputs": [],
      "name": "name",
      "outputs": [
        {
          "internalType": "string",
          "name": "",
          "type": "string"
        }
      ],
      "stateMutability": "view",
      "type": "function"
    },
    {
      "inputs": [],
      "name": "owner",
      "outputs": [
        {
          "internalType": "address",
          "name": "",
          "type": "address"
        }
      ],
      "stateMutability": "view",
      "type": "function"
    },
    {
      "inputs": [
        {
          "internalType": "uint256",
          "name": "tokenId",
          "type": "uint256"
        }
      ],
      "name": "ownerOf",
      "outputs": [
        {
          "internalType": "address",
          "name": "",
          "type": "address"
        }
      ],
      "stateMutability": "view",
      "type": "function"
    },
    {
      "inputs": [],
      "name": "renounceOwnership",
      "outputs": [],
      "stateMutability": "nonpayable",
      "type": "function"
    },
    {
      "inputs": [
        {
          "internalType": "address",
          "name": "from",
          "type": "address"
        },
        {
          "internalType": "address",
          "name": "to",
          "type": "address"
        },
        {
          "internalType": "uint256",
          "name": "tokenId",
          "type": "uint256"
        }
      ],
      "name": "safeTransferFrom",
      "outputs": [],
      "stateMutability": "nonpayable",
      "type": "function"
    },
    {
      "inputs": [
        {
          "internalType": "address",
          "name": "from",
          "type": "address"
        },
        {
          "internalType": "address",
          "name": "to",
          "type": "address"
        },
        {
          "internalType": "uint256",
          "name": "tokenId",
          "type": "uint256"
        },
        {
          "internalType": "bytes",
          "name": "_data",
          "type": "bytes"
        }
      ],
      "name": "safeTransferFrom",
      "outputs": [],
      "stateMutability": "nonpayable",
      "type": "function"
    },
    {
      "inputs": [
        {
          "internalType": "address",
          "name": "operator",
          "type": "address"
        },
        {
          "internalType": "bool",
          "name": "approved",
          "type": "bool"
        }
      ],
      "name": "setApprovalForAll",
      "outputs": [],
      "stateMutability": "nonpayable",
      "type": "function"
    },
    {
      "inputs": [
        {
          "internalType": "bytes4",
          "name": "interfaceId",
          "type": "bytes4"
        }
      ],
      "name": "supportsInterface",
      "outputs": [
        {
          "internalType": "bool",
          "name": "",
          "type": "bool"
        }
      ],
      "stateMutability": "view",
      "type": "function"
    },
    {
      "inputs": [],
      "name": "symbol",
      "outputs": [
        {
          "internalType": "string",
          "name": "",
          "type": "string"
        }
      ],
      "stateMutability": "view",
      "type": "function"
    },
    {
      "inputs": [],
      "name": "togglePublicSale",
      "outputs": [],
      "stateMutability": "nonpayable",
      "type": "function"
    },
    {
      "inputs": [
        {
          "internalType": "uint256",
          "name": "index",
          "type": "uint256"
        }
      ],
      "name": "tokenByIndex",
      "outputs": [
        {
          "internalType": "uint256",
          "name": "",
          "type": "uint256"
        }
      ],
      "stateMutability": "view",
      "type": "function"
    },
    {
      "inputs": [
        {
          "internalType": "address",
          "name": "owner",
          "type": "address"
        },
        {
          "internalType": "uint256",
          "name": "index",
          "type": "uint256"
        }
      ],
      "name": "tokenOfOwnerByIndex",
      "outputs": [
        {
          "internalType": "uint256",
          "name": "",
          "type": "uint256"
        }
      ],
      "stateMutability": "view",
      "type": "function"
    },
    {
      "inputs": [
        {
          "internalType": "uint256",
          "name": "tokenId",
          "type": "uint256"
        }
      ],
      "name": "tokenURI",
      "outputs": [
        {
          "internalType": "string",
          "name": "",
          "type": "string"
        }
      ],
      "stateMutability": "view",
      "type": "function"
    },
    {
      "inputs": [],
      "name": "totalSupply",
      "outputs": [
        {
          "internalType": "uint256",
          "name": "",
          "type": "uint256"
        }
      ],
      "stateMutability": "view",
      "type": "function"
    },
    {
      "inputs": [
        {
          "internalType": "address",
          "name": "from",
          "type": "address"
        },
        {
          "internalType": "address",
          "name": "to",
          "type": "address"
        },
        {
          "internalType": "uint256",
          "name": "tokenId",
          "type": "uint256"
        }
      ],
      "name": "transferFrom",
      "outputs": [],
      "stateMutability": "nonpayable",
      "type": "function"
    },
    {
      "inputs": [
        {
          "internalType": "address",
          "name": "newOwner",
          "type": "address"
        }
      ],
      "name": "transferOwnership",
      "outputs": [],
      "stateMutability": "nonpayable",
      "type": "function"
    }
  ],
  "bytecode": "0x6101406040526040518060400160405280600181526020017f3000000000000000000000000000000000000000000000000000000000000000815250600b908051906020019062000052929190620003a3565b50612710600d5566d529ae9e860000600e556000600f556000601060006101000a81548160ff0219169083151502179055503480156200009157600080fd5b5060405162005596380380620055968339818101604052810190620000b791906200056d565b6040518060400160405280600981526020017f416c6c6f774c69737400000000000000000000000000000000000000000000008152506040518060400160405280600381526020017f312e300000000000000000000000000000000000000000000000000000000000815250838381600090805190602001906200013d92919062000434565b5080600190805190602001906200015692919062000434565b505050620001796200016d6200029960201b60201c565b620002a160201b60201c565b60008280519060200120905060008280519060200120905060007f8b73c3c69bb8fe3d512ecc4cf759cc79239f7b179b0ffacaa9a75d522b39400f90508260e081815250508161010081815250504660a08181525050620001e28184846200036760201b60201c565b608081815250503073ffffffffffffffffffffffffffffffffffffffff1660c08173ffffffffffffffffffffffffffffffffffffffff1660601b81525050806101208181525050505050505083600c90805190602001906200024692919062000434565b5082600f8190555033601060016101000a81548173ffffffffffffffffffffffffffffffffffffffff021916908373ffffffffffffffffffffffffffffffffffffffff1602179055505050505062000886565b600033905090565b6000600a60009054906101000a900473ffffffffffffffffffffffffffffffffffffffff16905081600a60006101000a81548173ffffffffffffffffffffffffffffffffffffffff021916908373ffffffffffffffffffffffffffffffffffffffff1602179055508173ffffffffffffffffffffffffffffffffffffffff168173ffffffffffffffffffffffffffffffffffffffff167f8be0079c531659141344cd1fd0a4f28419497f9722a3daafe3b4186f6b6457e060405160405180910390a35050565b600083838346306040516020016200038495949392919062000657565b6040516020818303038152906040528051906020012090509392505050565b828054620003b19062000791565b90600052602060002090601f016020900481019282620003d5576000855562000421565b82601f10620003f057805160ff191683800117855562000421565b8280016001018555821562000421579182015b828111156200042057825182559160200191906001019062000403565b5b509050620004309190620004c5565b5090565b828054620004429062000791565b90600052602060002090601f016020900481019282620004665760008555620004b2565b82601f106200048157805160ff1916838001178555620004b2565b82800160010185558215620004b2579182015b82811115620004b157825182559160200191906001019062000494565b5b509050620004c19190620004c5565b5090565b5b80821115620004e0576000816000905550600101620004c6565b5090565b6000620004fb620004f584620006dd565b620006b4565b9050828152602081018484840111156200051457600080fd5b620005218482856200075b565b509392505050565b600082601f8301126200053b57600080fd5b81516200054d848260208601620004e4565b91505092915050565b60008151905062000567816200086c565b92915050565b600080600080608085870312156200058457600080fd5b600085015167ffffffffffffffff8111156200059f57600080fd5b620005ad8782880162000529565b9450506020620005c08782880162000556565b935050604085015167ffffffffffffffff811115620005de57600080fd5b620005ec8782880162000529565b925050606085015167ffffffffffffffff8111156200060a57600080fd5b620006188782880162000529565b91505092959194509250565b6200062f8162000713565b82525050565b620006408162000727565b82525050565b620006518162000751565b82525050565b600060a0820190506200066e600083018862000635565b6200067d602083018762000635565b6200068c604083018662000635565b6200069b606083018562000646565b620006aa608083018462000624565b9695505050505050565b6000620006c0620006d3565b9050620006ce8282620007c7565b919050565b6000604051905090565b600067ffffffffffffffff821115620006fb57620006fa6200082c565b5b62000706826200085b565b9050602081019050919050565b6000620007208262000731565b9050919050565b6000819050919050565b600073ffffffffffffffffffffffffffffffffffffffff82169050919050565b6000819050919050565b60005b838110156200077b5780820151818401526020810190506200075e565b838111156200078b576000848401525b50505050565b60006002820490506001821680620007aa57607f821691505b60208210811415620007c157620007c0620007fd565b5b50919050565b620007d2826200085b565b810181811067ffffffffffffffff82111715620007f457620007f36200082c565b5b80604052505050565b7f4e487b7100000000000000000000000000000000000000000000000000000000600052602260045260246000fd5b7f4e487b7100000000000000000000000000000000000000000000000000000000600052604160045260246000fd5b6000601f19601f8301169050919050565b620008778162000751565b81146200088357600080fd5b50565b60805160a05160c05160601c60e0516101005161012051614cbd620008d96000396000612a7401526000612ab601526000612a95015260006129ca01526000612a2001526000612a490152614cbd6000f3fe6080604052600436106101b75760003560e01c8063715018a6116100ec578063dbddb26a1161008a578063f2fde38b11610064578063f2fde38b14610613578063f43a22dc1461063c578063f54a828e14610667578063fd301c4914610683576101b7565b8063dbddb26a14610594578063e222c7f9146105bf578063e985e9c5146105d6576101b7565b806395d89b41116100c657806395d89b41146104da578063a22cb46514610505578063b88d4fde1461052e578063c87b56dd14610557576101b7565b8063715018a61461046d5780638d859f3e146104845780638da5cb5b146104af576101b7565b806332cb6b0c116101595780634f6ccce7116101335780634f6ccce71461038b5780635f89584e146103c85780636352211e146103f357806370a0823114610430576101b7565b806332cb6b0c1461031b57806340c10f191461034657806342842e0e14610362576101b7565b8063095ea7b311610195578063095ea7b31461026157806318160ddd1461028a57806323b872dd146102b55780632f745c59146102de576101b7565b806301ffc9a7146101bc57806306fdde03146101f9578063081812fc14610224575b600080fd5b3480156101c857600080fd5b506101e360048036038101906101de91906133e0565b6106ae565b6040516101f09190613c11565b60405180910390f35b34801561020557600080fd5b5061020e610728565b60405161021b9190613ced565b60405180910390f35b34801561023057600080fd5b5061024b60048036038101906102469190613432565b6107ba565b6040516102589190613baa565b60405180910390f35b34801561026d57600080fd5b50610288600480360381019061028391906133a4565b61083f565b005b34801561029657600080fd5b5061029f610957565b6040516102ac91906140af565b60405180910390f35b3480156102c157600080fd5b506102dc60048036038101906102d7919061329e565b610964565b005b3480156102ea57600080fd5b50610305600480360381019061030091906133a4565b6109c4565b60405161031291906140af565b60405180910390f35b34801561032757600080fd5b50610330610a69565b60405161033d91906140af565b60405180910390f35b610360600480360381019061035b91906133a4565b610a6f565b005b34801561036e57600080fd5b506103896004803603810190610384919061329e565b610be1565b005b34801561039757600080fd5b506103b260048036038101906103ad9190613432565b610c01565b6040516103bf91906140af565b60405180910390f35b3480156103d457600080fd5b506103dd610c98565b6040516103ea9190613c11565b60405180910390f35b3480156103ff57600080fd5b5061041a60048036038101906104159190613432565b610cab565b6040516104279190613baa565b60405180910390f35b34801561043c57600080fd5b5061045760048036038101906104529190613239565b610d5d565b60405161046491906140af565b60405180910390f35b34801561047957600080fd5b50610482610e15565b005b34801561049057600080fd5b50610499610e9d565b6040516104a691906140af565b60405180910390f35b3480156104bb57600080fd5b506104c4610ea3565b6040516104d19190613baa565b60405180910390f35b3480156104e657600080fd5b506104ef610ecd565b6040516104fc9190613ced565b60405180910390f35b34801561051157600080fd5b5061052c60048036038101906105279190613368565b610f5f565b005b34801561053a57600080fd5b50610555600480360381019061055091906132ed565b610f75565b005b34801561056357600080fd5b5061057e60048036038101906105799190613432565b610fd7565b60405161058b9190613ced565b60405180910390f35b3480156105a057600080fd5b506105a961107e565b6040516105b69190613ced565b60405180910390f35b3480156105cb57600080fd5b506105d461110c565b005b3480156105e257600080fd5b506105fd60048036038101906105f89190613262565b6111b4565b60405161060a9190613c11565b60405180910390f35b34801561061f57600080fd5b5061063a60048036038101906106359190613239565b611248565b005b34801561064857600080fd5b50610651611340565b60405161065e91906140af565b60405180910390f35b610681600480360381019061067c919061345b565b611346565b005b34801561068f57600080fd5b506106986114c4565b6040516106a59190613baa565b60405180910390f35b60007f780e9d63000000000000000000000000000000000000000000000000000000007bffffffffffffffffffffffffffffffffffffffffffffffffffffffff1916827bffffffffffffffffffffffffffffffffffffffffffffffffffffffff191614806107215750610720826114ea565b5b9050919050565b60606000805461073790614320565b80601f016020809104026020016040519081016040528092919081815260200182805461076390614320565b80156107b05780601f10610785576101008083540402835291602001916107b0565b820191906000526020600020905b81548152906001019060200180831161079357829003601f168201915b5050505050905090565b60006107c5826115cc565b610804576040517f08c379a00000000000000000000000000000000000000000000000000000000081526004016107fb90613f6f565b60405180910390fd5b6004600083815260200190815260200160002060009054906101000a900473ffffffffffffffffffffffffffffffffffffffff169050919050565b600061084a82610cab565b90508073ffffffffffffffffffffffffffffffffffffffff168373ffffffffffffffffffffffffffffffffffffffff1614156108bb576040517f08c379a00000000000000000000000000000000000000000000000000000000081526004016108b29061400f565b60405180910390fd5b8073ffffffffffffffffffffffffffffffffffffffff166108da611638565b73ffffffffffffffffffffffffffffffffffffffff161480610909575061090881610903611638565b6111b4565b5b610948576040517f08c379a000000000000000000000000000000000000000000000000000000000815260040161093f90613ecf565b60405180910390fd5b6109528383611640565b505050565b6000600880549050905090565b61097561096f611638565b826116f9565b6109b4576040517f08c379a00000000000000000000000000000000000000000000000000000000081526004016109ab9061404f565b60405180910390fd5b6109bf8383836117d7565b505050565b60006109cf83610d5d565b8210610a10576040517f08c379a0000000000000000000000000000000000000000000000000000000008152600401610a0790613d6f565b60405180910390fd5b600660008473ffffffffffffffffffffffffffffffffffffffff1673ffffffffffffffffffffffffffffffffffffffff168152602001908152602001600020600083815260200190815260200160002054905092915050565b600d5481565b60011515601060009054906101000a900460ff16151514610ac5576040517f08c379a0000000000000000000000000000000000000000000000000000000008152600401610abc90613faf565b60405180910390fd5b600d54610ad0610957565b1115610b11576040517f08c379a0000000000000000000000000000000000000000000000000000000008152600401610b089061408f565b60405180910390fd5b600e54341015610b56576040517f08c379a0000000000000000000000000000000000000000000000000000000008152600401610b4d9061402f565b60405180910390fd5b600f54811115610b9b576040517f08c379a0000000000000000000000000000000000000000000000000000000008152600401610b9290613f8f565b60405180910390fd5b60005b81811015610bdc5760006001610bb2610957565b610bbc9190614198565b9050610bc88482611a3e565b508080610bd490614383565b915050610b9e565b505050565b610bfc83838360405180602001604052806000815250610f75565b505050565b6000610c0b610957565b8210610c4c576040517f08c379a0000000000000000000000000000000000000000000000000000000008152600401610c439061406f565b60405180910390fd5b60088281548110610c86577f4e487b7100000000000000000000000000000000000000000000000000000000600052603260045260246000fd5b90600052602060002001549050919050565b601060009054906101000a900460ff1681565b6000806002600084815260200190815260200160002060009054906101000a900473ffffffffffffffffffffffffffffffffffffffff169050600073ffffffffffffffffffffffffffffffffffffffff168173ffffffffffffffffffffffffffffffffffffffff161415610d54576040517f08c379a0000000000000000000000000000000000000000000000000000000008152600401610d4b90613f0f565b60405180910390fd5b80915050919050565b60008073ffffffffffffffffffffffffffffffffffffffff168273ffffffffffffffffffffffffffffffffffffffff161415610dce576040517f08c379a0000000000000000000000000000000000000000000000000000000008152600401610dc590613eef565b60405180910390fd5b600360008373ffffffffffffffffffffffffffffffffffffffff1673ffffffffffffffffffffffffffffffffffffffff168152602001908152602001600020549050919050565b610e1d611638565b73ffffffffffffffffffffffffffffffffffffffff16610e3b610ea3565b73ffffffffffffffffffffffffffffffffffffffff1614610e91576040517f08c379a0000000000000000000000000000000000000000000000000000000008152600401610e8890613fcf565b60405180910390fd5b610e9b6000611a5c565b565b600e5481565b6000600a60009054906101000a900473ffffffffffffffffffffffffffffffffffffffff16905090565b606060018054610edc90614320565b80601f0160208091040260200160405190810160405280929190818152602001828054610f0890614320565b8015610f555780601f10610f2a57610100808354040283529160200191610f55565b820191906000526020600020905b815481529060010190602001808311610f3857829003601f168201915b5050505050905090565b610f71610f6a611638565b8383611b22565b5050565b610f86610f80611638565b836116f9565b610fc5576040517f08c379a0000000000000000000000000000000000000000000000000000000008152600401610fbc9061404f565b60405180910390fd5b610fd184848484611c8f565b50505050565b6060610fe2826115cc565b611021576040517f08c379a000000000000000000000000000000000000000000000000000000000815260040161101890613fef565b60405180910390fd5b600061102b611ceb565b9050600081511161104b5760405180602001604052806000815250611076565b8061105584611d13565b604051602001611066929190613b2d565b6040516020818303038152906040525b915050919050565b600c805461108b90614320565b80601f01602080910402602001604051908101604052809291908181526020018280546110b790614320565b80156111045780601f106110d957610100808354040283529160200191611104565b820191906000526020600020905b8154815290600101906020018083116110e757829003601f168201915b505050505081565b611114611638565b73ffffffffffffffffffffffffffffffffffffffff16611132610ea3565b73ffffffffffffffffffffffffffffffffffffffff1614611188576040517f08c379a000000000000000000000000000000000000000000000000000000000815260040161117f90613fcf565b60405180910390fd5b601060009054906101000a900460ff1615601060006101000a81548160ff021916908315150217905550565b6000600560008473ffffffffffffffffffffffffffffffffffffffff1673ffffffffffffffffffffffffffffffffffffffff16815260200190815260200160002060008373ffffffffffffffffffffffffffffffffffffffff1673ffffffffffffffffffffffffffffffffffffffff16815260200190815260200160002060009054906101000a900460ff16905092915050565b611250611638565b73ffffffffffffffffffffffffffffffffffffffff1661126e610ea3565b73ffffffffffffffffffffffffffffffffffffffff16146112c4576040517f08c379a00000000000000000000000000000000000000000000000000000000081526004016112bb90613fcf565b60405180910390fd5b600073ffffffffffffffffffffffffffffffffffffffff168173ffffffffffffffffffffffffffffffffffffffff161415611334576040517f08c379a000000000000000000000000000000000000000000000000000000000815260040161132b90613dcf565b60405180910390fd5b61133d81611a5c565b50565b600f5481565b600d54611351610957565b1115611392576040517f08c379a00000000000000000000000000000000000000000000000000000000081526004016113899061408f565b60405180910390fd5b600e543410156113d7576040517f08c379a00000000000000000000000000000000000000000000000000000000081526004016113ce9061402f565b60405180910390fd5b600f5484111561141c576040517f08c379a000000000000000000000000000000000000000000000000000000000815260040161141390613f8f565b60405180910390fd5b6114268383611ec0565b611465576040517f08c379a000000000000000000000000000000000000000000000000000000000815260040161145c90613e6f565b60405180910390fd5b60005b848110156114a6576000600161147c610957565b6114869190614198565b90506114928382611a3e565b50808061149e90614383565b915050611468565b5081600b90805190602001906114bd92919061308d565b5050505050565b601060019054906101000a900473ffffffffffffffffffffffffffffffffffffffff1681565b60007f80ac58cd000000000000000000000000000000000000000000000000000000007bffffffffffffffffffffffffffffffffffffffffffffffffffffffff1916827bffffffffffffffffffffffffffffffffffffffffffffffffffffffff191614806115b557507f5b5e139f000000000000000000000000000000000000000000000000000000007bffffffffffffffffffffffffffffffffffffffffffffffffffffffff1916827bffffffffffffffffffffffffffffffffffffffffffffffffffffffff1916145b806115c557506115c482612096565b5b9050919050565b60008073ffffffffffffffffffffffffffffffffffffffff166002600084815260200190815260200160002060009054906101000a900473ffffffffffffffffffffffffffffffffffffffff1673ffffffffffffffffffffffffffffffffffffffff1614159050919050565b600033905090565b816004600083815260200190815260200160002060006101000a81548173ffffffffffffffffffffffffffffffffffffffff021916908373ffffffffffffffffffffffffffffffffffffffff160217905550808273ffffffffffffffffffffffffffffffffffffffff166116b383610cab565b73ffffffffffffffffffffffffffffffffffffffff167f8c5be1e5ebec7d5bd14f71427d1e84f3dd0314c0f7b2291e5b200ac8c7c3b92560405160405180910390a45050565b6000611704826115cc565b611743576040517f08c379a000000000000000000000000000000000000000000000000000000000815260040161173a90613eaf565b60405180910390fd5b600061174e83610cab565b90508073ffffffffffffffffffffffffffffffffffffffff168473ffffffffffffffffffffffffffffffffffffffff161480611790575061178f81856111b4565b5b806117ce57508373ffffffffffffffffffffffffffffffffffffffff166117b6846107ba565b73ffffffffffffffffffffffffffffffffffffffff16145b91505092915050565b8273ffffffffffffffffffffffffffffffffffffffff166117f782610cab565b73ffffffffffffffffffffffffffffffffffffffff161461184d576040517f08c379a000000000000000000000000000000000000000000000000000000000815260040161184490613def565b60405180910390fd5b600073ffffffffffffffffffffffffffffffffffffffff168273ffffffffffffffffffffffffffffffffffffffff1614156118bd576040517f08c379a00000000000000000000000000000000000000000000000000000000081526004016118b490613e2f565b60405180910390fd5b6118c8838383612100565b6118d3600082611640565b6001600360008573ffffffffffffffffffffffffffffffffffffffff1673ffffffffffffffffffffffffffffffffffffffff1681526020019081526020016000206000828254611923919061421f565b925050819055506001600360008473ffffffffffffffffffffffffffffffffffffffff1673ffffffffffffffffffffffffffffffffffffffff168152602001908152602001600020600082825461197a9190614198565b92505081905550816002600083815260200190815260200160002060006101000a81548173ffffffffffffffffffffffffffffffffffffffff021916908373ffffffffffffffffffffffffffffffffffffffff160217905550808273ffffffffffffffffffffffffffffffffffffffff168473ffffffffffffffffffffffffffffffffffffffff167fddf252ad1be2c89b69c2b068fc378daa952ba7f163c4a11628f55a4df523b3ef60405160405180910390a4611a39838383612214565b505050565b611a58828260405180602001604052806000815250612219565b5050565b6000600a60009054906101000a900473ffffffffffffffffffffffffffffffffffffffff16905081600a60006101000a81548173ffffffffffffffffffffffffffffffffffffffff021916908373ffffffffffffffffffffffffffffffffffffffff1602179055508173ffffffffffffffffffffffffffffffffffffffff168173ffffffffffffffffffffffffffffffffffffffff167f8be0079c531659141344cd1fd0a4f28419497f9722a3daafe3b4186f6b6457e060405160405180910390a35050565b8173ffffffffffffffffffffffffffffffffffffffff168373ffffffffffffffffffffffffffffffffffffffff161415611b91576040517f08c379a0000000000000000000000000000000000000000000000000000000008152600401611b8890613e4f565b60405180910390fd5b80600560008573ffffffffffffffffffffffffffffffffffffffff1673ffffffffffffffffffffffffffffffffffffffff16815260200190815260200160002060008473ffffffffffffffffffffffffffffffffffffffff1673ffffffffffffffffffffffffffffffffffffffff16815260200190815260200160002060006101000a81548160ff0219169083151502179055508173ffffffffffffffffffffffffffffffffffffffff168373ffffffffffffffffffffffffffffffffffffffff167f17307eab39ab6107e8899845ad3d59bd9653f200f220920489ca2b5937696c3183604051611c829190613c11565b60405180910390a3505050565b611c9a8484846117d7565b611ca684848484612274565b611ce5576040517f08c379a0000000000000000000000000000000000000000000000000000000008152600401611cdc90613d8f565b60405180910390fd5b50505050565b6060600c604051602001611cff9190613b51565b604051602081830303815290604052905090565b60606000821415611d5b576040518060400160405280600181526020017f30000000000000000000000000000000000000000000000000000000000000008152509050611ebb565b600082905060005b60008214611d8d578080611d7690614383565b915050600a82611d8691906141ee565b9150611d63565b60008167ffffffffffffffff811115611dcf577f4e487b7100000000000000000000000000000000000000000000000000000000600052604160045260246000fd5b6040519080825280601f01601f191660200182016040528015611e015781602001600182028036833780820191505090505b5090505b60008514611eb457600182611e1a919061421f565b9150600a85611e2991906143d6565b6030611e359190614198565b60f81b818381518110611e71577f4e487b7100000000000000000000000000000000000000000000000000000000600052603260045260246000fd5b60200101907effffffffffffffffffffffffffffffffffffffffffffffffffffffffffffff1916908160001a905350600a85611ead91906141ee565b9450611e05565b8093505050505b919050565b600080611f187f5654f0cf0e72ba221753e0a887e0f6c4f75f543978d5f84cb33ef62b328a20ba8560000151604051602001611efd929190613c2c565b6040516020818303038152906040528051906020012061240b565b9050600b604051611f299190613b16565b604051809103902083805190602001201415611f7a576040517f08c379a0000000000000000000000000000000000000000000000000000000008152600401611f7190613d4f565b60405180910390fd5b836000015173ffffffffffffffffffffffffffffffffffffffff163373ffffffffffffffffffffffffffffffffffffffff1614611fec576040517f08c379a0000000000000000000000000000000000000000000000000000000008152600401611fe390613daf565b60405180910390fd5b6000611ff88285612425565b90508073ffffffffffffffffffffffffffffffffffffffff16601060019054906101000a900473ffffffffffffffffffffffffffffffffffffffff1673ffffffffffffffffffffffffffffffffffffffff161461208a576040517f08c379a000000000000000000000000000000000000000000000000000000000815260040161208190613e6f565b60405180910390fd5b60019250505092915050565b60007f01ffc9a7000000000000000000000000000000000000000000000000000000007bffffffffffffffffffffffffffffffffffffffffffffffffffffffff1916827bffffffffffffffffffffffffffffffffffffffffffffffffffffffff1916149050919050565b61210b83838361244c565b600073ffffffffffffffffffffffffffffffffffffffff168373ffffffffffffffffffffffffffffffffffffffff16141561214e5761214981612451565b61218d565b8173ffffffffffffffffffffffffffffffffffffffff168373ffffffffffffffffffffffffffffffffffffffff161461218c5761218b838261249a565b5b5b600073ffffffffffffffffffffffffffffffffffffffff168273ffffffffffffffffffffffffffffffffffffffff1614156121d0576121cb81612607565b61220f565b8273ffffffffffffffffffffffffffffffffffffffff168273ffffffffffffffffffffffffffffffffffffffff161461220e5761220d828261274a565b5b5b505050565b505050565b61222383836127c9565b6122306000848484612274565b61226f576040517f08c379a000000000000000000000000000000000000000000000000000000000815260040161226690613d8f565b60405180910390fd5b505050565b60006122958473ffffffffffffffffffffffffffffffffffffffff166129a3565b156123fe578373ffffffffffffffffffffffffffffffffffffffff1663150b7a026122be611638565b8786866040518563ffffffff1660e01b81526004016122e09493929190613bc5565b602060405180830381600087803b1580156122fa57600080fd5b505af192505050801561232b57506040513d601f19601f820116820180604052508101906123289190613409565b60015b6123ae573d806000811461235b576040519150601f19603f3d011682016040523d82523d6000602084013e612360565b606091505b506000815114156123a6576040517f08c379a000000000000000000000000000000000000000000000000000000000815260040161239d90613d8f565b60405180910390fd5b805181602001fd5b63150b7a0260e01b7bffffffffffffffffffffffffffffffffffffffffffffffffffffffff1916817bffffffffffffffffffffffffffffffffffffffffffffffffffffffff191614915050612403565b600190505b949350505050565b600061241e6124186129c6565b83612ae0565b9050919050565b60008060006124348585612b13565b9150915061244181612b96565b819250505092915050565b505050565b6008805490506009600083815260200190815260200160002081905550600881908060018154018082558091505060019003906000526020600020016000909190919091505550565b600060016124a784610d5d565b6124b1919061421f565b9050600060076000848152602001908152602001600020549050818114612596576000600660008673ffffffffffffffffffffffffffffffffffffffff1673ffffffffffffffffffffffffffffffffffffffff168152602001908152602001600020600084815260200190815260200160002054905080600660008773ffffffffffffffffffffffffffffffffffffffff1673ffffffffffffffffffffffffffffffffffffffff168152602001908152602001600020600084815260200190815260200160002081905550816007600083815260200190815260200160002081905550505b6007600084815260200190815260200160002060009055600660008573ffffffffffffffffffffffffffffffffffffffff1673ffffffffffffffffffffffffffffffffffffffff16815260200190815260200160002060008381526020019081526020016000206000905550505050565b6000600160088054905061261b919061421f565b9050600060096000848152602001908152602001600020549050600060088381548110612671577f4e487b7100000000000000000000000000000000000000000000000000000000600052603260045260246000fd5b9060005260206000200154905080600883815481106126b9577f4e487b7100000000000000000000000000000000000000000000000000000000600052603260045260246000fd5b90600052602060002001819055508160096000838152602001908152602001600020819055506009600085815260200190815260200160002060009055600880548061272e577f4e487b7100000000000000000000000000000000000000000000000000000000600052603160045260246000fd5b6001900381819060005260206000200160009055905550505050565b600061275583610d5d565b905081600660008573ffffffffffffffffffffffffffffffffffffffff1673ffffffffffffffffffffffffffffffffffffffff168152602001908152602001600020600083815260200190815260200160002081905550806007600084815260200190815260200160002081905550505050565b600073ffffffffffffffffffffffffffffffffffffffff168273ffffffffffffffffffffffffffffffffffffffff161415612839576040517f08c379a000000000000000000000000000000000000000000000000000000000815260040161283090613f4f565b60405180910390fd5b612842816115cc565b15612882576040517f08c379a000000000000000000000000000000000000000000000000000000000815260040161287990613e0f565b60405180910390fd5b61288e60008383612100565b6001600360008473ffffffffffffffffffffffffffffffffffffffff1673ffffffffffffffffffffffffffffffffffffffff16815260200190815260200160002060008282546128de9190614198565b92505081905550816002600083815260200190815260200160002060006101000a81548173ffffffffffffffffffffffffffffffffffffffff021916908373ffffffffffffffffffffffffffffffffffffffff160217905550808273ffffffffffffffffffffffffffffffffffffffff16600073ffffffffffffffffffffffffffffffffffffffff167fddf252ad1be2c89b69c2b068fc378daa952ba7f163c4a11628f55a4df523b3ef60405160405180910390a461299f60008383612214565b5050565b6000808273ffffffffffffffffffffffffffffffffffffffff163b119050919050565b60007f000000000000000000000000000000000000000000000000000000000000000073ffffffffffffffffffffffffffffffffffffffff163073ffffffffffffffffffffffffffffffffffffffff16148015612a4257507f000000000000000000000000000000000000000000000000000000000000000046145b15612a6f577f00000000000000000000000000000000000000000000000000000000000000009050612add565b612ada7f00000000000000000000000000000000000000000000000000000000000000007f00000000000000000000000000000000000000000000000000000000000000007f0000000000000000000000000000000000000000000000000000000000000000612ee7565b90505b90565b60008282604051602001612af5929190613b73565b60405160208183030381529060405280519060200120905092915050565b600080604183511415612b555760008060006020860151925060408601519150606086015160001a9050612b4987828585612f21565b94509450505050612b8f565b604083511415612b86576000806020850151915060408501519050612b7b86838361302e565b935093505050612b8f565b60006002915091505b9250929050565b60006004811115612bd0577f4e487b7100000000000000000000000000000000000000000000000000000000600052602160045260246000fd5b816004811115612c09577f4e487b7100000000000000000000000000000000000000000000000000000000600052602160045260246000fd5b1415612c1457612ee4565b60016004811115612c4e577f4e487b7100000000000000000000000000000000000000000000000000000000600052602160045260246000fd5b816004811115612c87577f4e487b7100000000000000000000000000000000000000000000000000000000600052602160045260246000fd5b1415612cc8576040517f08c379a0000000000000000000000000000000000000000000000000000000008152600401612cbf90613d0f565b60405180910390fd5b60026004811115612d02577f4e487b7100000000000000000000000000000000000000000000000000000000600052602160045260246000fd5b816004811115612d3b577f4e487b7100000000000000000000000000000000000000000000000000000000600052602160045260246000fd5b1415612d7c576040517f08c379a0000000000000000000000000000000000000000000000000000000008152600401612d7390613d2f565b60405180910390fd5b60036004811115612db6577f4e487b7100000000000000000000000000000000000000000000000000000000600052602160045260246000fd5b816004811115612def577f4e487b7100000000000000000000000000000000000000000000000000000000600052602160045260246000fd5b1415612e30576040517f08c379a0000000000000000000000000000000000000000000000000000000008152600401612e2790613e8f565b60405180910390fd5b600480811115612e69577f4e487b7100000000000000000000000000000000000000000000000000000000600052602160045260246000fd5b816004811115612ea2577f4e487b7100000000000000000000000000000000000000000000000000000000600052602160045260246000fd5b1415612ee3576040517f08c379a0000000000000000000000000000000000000000000000000000000008152600401612eda90613f2f565b60405180910390fd5b5b50565b60008383834630604051602001612f02959493929190613c55565b6040516020818303038152906040528051906020012090509392505050565b6000807f7fffffffffffffffffffffffffffffff5d576e7357a4501ddfe92f46681b20a08360001c1115612f5c576000600391509150613025565b601b8560ff1614158015612f745750601c8560ff1614155b15612f86576000600491509150613025565b600060018787878760405160008152602001604052604051612fab9493929190613ca8565b6020604051602081039080840390855afa158015612fcd573d6000803e3d6000fd5b505050602060405103519050600073ffffffffffffffffffffffffffffffffffffffff168173ffffffffffffffffffffffffffffffffffffffff16141561301c57600060019250925050613025565b80600092509250505b94509492505050565b60008060007f7fffffffffffffffffffffffffffffffffffffffffffffffffffffffffffffff60001b841690506000601b60ff8660001c901c6130719190614198565b905061307f87828885612f21565b935093505050935093915050565b82805461309990614320565b90600052602060002090601f0160209004810192826130bb5760008555613102565b82601f106130d457805160ff1916838001178555613102565b82800160010185558215613102579182015b828111156131015782518255916020019190600101906130e6565b5b50905061310f9190613113565b5090565b5b8082111561312c576000816000905550600101613114565b5090565b600061314361313e846140ef565b6140ca565b90508281526020810184848401111561315b57600080fd5b6131668482856142de565b509392505050565b60008135905061317d81614c2b565b92915050565b60008135905061319281614c42565b92915050565b6000813590506131a781614c59565b92915050565b6000815190506131bc81614c59565b92915050565b600082601f8301126131d357600080fd5b81356131e3848260208601613130565b91505092915050565b6000602082840312156131fe57600080fd5b61320860206140ca565b905060006132188482850161316e565b60008301525092915050565b60008135905061323381614c70565b92915050565b60006020828403121561324b57600080fd5b60006132598482850161316e565b91505092915050565b6000806040838503121561327557600080fd5b60006132838582860161316e565b92505060206132948582860161316e565b9150509250929050565b6000806000606084860312156132b357600080fd5b60006132c18682870161316e565b93505060206132d28682870161316e565b92505060406132e386828701613224565b9150509250925092565b6000806000806080858703121561330357600080fd5b60006133118782880161316e565b94505060206133228782880161316e565b935050604061333387828801613224565b925050606085013567ffffffffffffffff81111561335057600080fd5b61335c878288016131c2565b91505092959194509250565b6000806040838503121561337b57600080fd5b60006133898582860161316e565b925050602061339a85828601613183565b9150509250929050565b600080604083850312156133b757600080fd5b60006133c58582860161316e565b92505060206133d685828601613224565b9150509250929050565b6000602082840312156133f257600080fd5b600061340084828501613198565b91505092915050565b60006020828403121561341b57600080fd5b6000613429848285016131ad565b91505092915050565b60006020828403121561344457600080fd5b600061345284828501613224565b91505092915050565b6000806000806080858703121561347157600080fd5b600061347f87828801613224565b9450506020613490878288016131ec565b935050604085013567ffffffffffffffff8111156134ad57600080fd5b6134b9878288016131c2565b92505060606134ca8782880161316e565b91505092959194509250565b6134df81614253565b82525050565b6134ee81614265565b82525050565b6134fd81614271565b82525050565b61351461350f82614271565b6143cc565b82525050565b60006135258261414a565b61352f8185614160565b935061353f8185602086016142ed565b613548816144c3565b840191505092915050565b6000815461356081614320565b61356a8186614171565b945060018216600081146135855760018114613596576135c9565b60ff198316865281860193506135c9565b61359f85614120565b60005b838110156135c1578154818901526001820191506020810190506135a2565b838801955050505b50505092915050565b60006135dd82614155565b6135e7818561417c565b93506135f78185602086016142ed565b613600816144c3565b840191505092915050565b600061361682614155565b613620818561418d565b93506136308185602086016142ed565b80840191505092915050565b6000815461364981614320565b613653818661418d565b9450600182166000811461366e576001811461367f576136b2565b60ff198316865281860193506136b2565b61368885614135565b60005b838110156136aa5781548189015260018201915060208101905061368b565b838801955050505b50505092915050565b60006136c860188361417c565b91506136d3826144d4565b602082019050919050565b60006136eb601f8361417c565b91506136f6826144fd565b602082019050919050565b600061370e600d8361417c565b915061371982614526565b602082019050919050565b6000613731602b8361417c565b915061373c8261454f565b604082019050919050565b600061375460328361417c565b915061375f8261459e565b604082019050919050565b600061377760118361417c565b9150613782826145ed565b602082019050919050565b600061379a60268361417c565b91506137a582614616565b604082019050919050565b60006137bd60258361417c565b91506137c882614665565b604082019050919050565b60006137e0601c8361417c565b91506137eb826146b4565b602082019050919050565b600061380360028361418d565b915061380e826146dd565b600282019050919050565b600061382660248361417c565b915061383182614706565b604082019050919050565b600061384960198361417c565b915061385482614755565b602082019050919050565b600061386c60118361417c565b91506138778261477e565b602082019050919050565b600061388f60228361417c565b915061389a826147a7565b604082019050919050565b60006138b2602c8361417c565b91506138bd826147f6565b604082019050919050565b60006138d560388361417c565b91506138e082614845565b604082019050919050565b60006138f8602a8361417c565b915061390382614894565b604082019050919050565b600061391b60298361417c565b9150613926826148e3565b604082019050919050565b600061393e60228361417c565b915061394982614932565b604082019050919050565b600061396160208361417c565b915061396c82614981565b602082019050919050565b6000613984602c8361417c565b915061398f826149aa565b604082019050919050565b60006139a760158361417c565b91506139b2826149f9565b602082019050919050565b60006139ca60168361417c565b91506139d582614a22565b602082019050919050565b60006139ed60208361417c565b91506139f882614a4b565b602082019050919050565b6000613a10602f8361417c565b9150613a1b82614a74565b604082019050919050565b6000613a3360218361417c565b9150613a3e82614ac3565b604082019050919050565b6000613a5660128361417c565b9150613a6182614b12565b602082019050919050565b6000613a7960318361417c565b9150613a8482614b3b565b604082019050919050565b6000613a9c602c8361417c565b9150613aa782614b8a565b604082019050919050565b6000613abf60178361417c565b9150613aca82614bd9565b602082019050919050565b6000613ae260018361418d565b9150613aed82614c02565b600182019050919050565b613b01816142c7565b82525050565b613b10816142d1565b82525050565b6000613b228284613553565b915081905092915050565b6000613b39828561360b565b9150613b45828461360b565b91508190509392505050565b6000613b5d828461363c565b9150613b6882613ad5565b915081905092915050565b6000613b7e826137f6565b9150613b8a8285613503565b602082019150613b9a8284613503565b6020820191508190509392505050565b6000602082019050613bbf60008301846134d6565b92915050565b6000608082019050613bda60008301876134d6565b613be760208301866134d6565b613bf46040830185613af8565b8181036060830152613c06818461351a565b905095945050505050565b6000602082019050613c2660008301846134e5565b92915050565b6000604082019050613c4160008301856134f4565b613c4e60208301846134d6565b9392505050565b600060a082019050613c6a60008301886134f4565b613c7760208301876134f4565b613c8460408301866134f4565b613c916060830185613af8565b613c9e60808301846134d6565b9695505050505050565b6000608082019050613cbd60008301876134f4565b613cca6020830186613b07565b613cd760408301856134f4565b613ce460608301846134f4565b95945050505050565b60006020820190508181036000830152613d0781846135d2565b905092915050565b60006020820190508181036000830152613d28816136bb565b9050919050565b60006020820190508181036000830152613d48816136de565b9050919050565b60006020820190508181036000830152613d6881613701565b9050919050565b60006020820190508181036000830152613d8881613724565b9050919050565b60006020820190508181036000830152613da881613747565b9050919050565b60006020820190508181036000830152613dc88161376a565b9050919050565b60006020820190508181036000830152613de88161378d565b9050919050565b60006020820190508181036000830152613e08816137b0565b9050919050565b60006020820190508181036000830152613e28816137d3565b9050919050565b60006020820190508181036000830152613e4881613819565b9050919050565b60006020820190508181036000830152613e688161383c565b9050919050565b60006020820190508181036000830152613e888161385f565b9050919050565b60006020820190508181036000830152613ea881613882565b9050919050565b60006020820190508181036000830152613ec8816138a5565b9050919050565b60006020820190508181036000830152613ee8816138c8565b9050919050565b60006020820190508181036000830152613f08816138eb565b9050919050565b60006020820190508181036000830152613f288161390e565b9050919050565b60006020820190508181036000830152613f4881613931565b9050919050565b60006020820190508181036000830152613f6881613954565b9050919050565b60006020820190508181036000830152613f8881613977565b9050919050565b60006020820190508181036000830152613fa88161399a565b9050919050565b60006020820190508181036000830152613fc8816139bd565b9050919050565b60006020820190508181036000830152613fe8816139e0565b9050919050565b6000602082019050818103600083015261400881613a03565b9050919050565b6000602082019050818103600083015261402881613a26565b9050919050565b6000602082019050818103600083015261404881613a49565b9050919050565b6000602082019050818103600083015261406881613a6c565b9050919050565b6000602082019050818103600083015261408881613a8f565b9050919050565b600060208201905081810360008301526140a881613ab2565b9050919050565b60006020820190506140c46000830184613af8565b92915050565b60006140d46140e5565b90506140e08282614352565b919050565b6000604051905090565b600067ffffffffffffffff82111561410a57614109614494565b5b614113826144c3565b9050602081019050919050565b60008190508160005260206000209050919050565b60008190508160005260206000209050919050565b600081519050919050565b600081519050919050565b600082825260208201905092915050565b600081905092915050565b600082825260208201905092915050565b600081905092915050565b60006141a3826142c7565b91506141ae836142c7565b9250827fffffffffffffffffffffffffffffffffffffffffffffffffffffffffffffffff038211156141e3576141e2614407565b5b828201905092915050565b60006141f9826142c7565b9150614204836142c7565b92508261421457614213614436565b5b828204905092915050565b600061422a826142c7565b9150614235836142c7565b92508282101561424857614247614407565b5b828203905092915050565b600061425e826142a7565b9050919050565b60008115159050919050565b6000819050919050565b60007fffffffff0000000000000000000000000000000000000000000000000000000082169050919050565b600073ffffffffffffffffffffffffffffffffffffffff82169050919050565b6000819050919050565b600060ff82169050919050565b82818337600083830152505050565b60005b8381101561430b5780820151818401526020810190506142f0565b8381111561431a576000848401525b50505050565b6000600282049050600182168061433857607f821691505b6020821081141561434c5761434b614465565b5b50919050565b61435b826144c3565b810181811067ffffffffffffffff8211171561437a57614379614494565b5b80604052505050565b600061438e826142c7565b91507fffffffffffffffffffffffffffffffffffffffffffffffffffffffffffffffff8214156143c1576143c0614407565b5b600182019050919050565b6000819050919050565b60006143e1826142c7565b91506143ec836142c7565b9250826143fc576143fb614436565b5b828206905092915050565b7f4e487b7100000000000000000000000000000000000000000000000000000000600052601160045260246000fd5b7f4e487b7100000000000000000000000000000000000000000000000000000000600052601260045260246000fd5b7f4e487b7100000000000000000000000000000000000000000000000000000000600052602260045260246000fd5b7f4e487b7100000000000000000000000000000000000000000000000000000000600052604160045260246000fd5b6000601f19601f8301169050919050565b7f45434453413a20696e76616c6964207369676e61747572650000000000000000600082015250565b7f45434453413a20696e76616c6964207369676e6174757265206c656e67746800600082015250565b7f496e76616c6964206e6f6e636500000000000000000000000000000000000000600082015250565b7f455243373231456e756d657261626c653a206f776e657220696e646578206f7560008201527f74206f6620626f756e6473000000000000000000000000000000000000000000602082015250565b7f4552433732313a207472616e7366657220746f206e6f6e20455243373231526560008201527f63656976657220696d706c656d656e7465720000000000000000000000000000602082015250565b7f4e6f74206f6e20616c6c6f77206c697374000000000000000000000000000000600082015250565b7f4f776e61626c653a206e6577206f776e657220697320746865207a65726f206160008201527f6464726573730000000000000000000000000000000000000000000000000000602082015250565b7f4552433732313a207472616e736665722066726f6d20696e636f72726563742060008201527f6f776e6572000000000000000000000000000000000000000000000000000000602082015250565b7f4552433732313a20746f6b656e20616c7265616479206d696e74656400000000600082015250565b7f1901000000000000000000000000000000000000000000000000000000000000600082015250565b7f4552433732313a207472616e7366657220746f20746865207a65726f2061646460008201527f7265737300000000000000000000000000000000000000000000000000000000602082015250565b7f4552433732313a20617070726f766520746f2063616c6c657200000000000000600082015250565b7f496e76616c6964207369676e6174757265000000000000000000000000000000600082015250565b7f45434453413a20696e76616c6964207369676e6174757265202773272076616c60008201527f7565000000000000000000000000000000000000000000000000000000000000602082015250565b7f4552433732313a206f70657261746f7220717565727920666f72206e6f6e657860008201527f697374656e7420746f6b656e0000000000000000000000000000000000000000602082015250565b7f4552433732313a20617070726f76652063616c6c6572206973206e6f74206f7760008201527f6e6572206e6f7220617070726f76656420666f7220616c6c0000000000000000602082015250565b7f4552433732313a2062616c616e636520717565727920666f7220746865207a6560008201527f726f206164647265737300000000000000000000000000000000000000000000602082015250565b7f4552433732313a206f776e657220717565727920666f72206e6f6e657869737460008201527f656e7420746f6b656e0000000000000000000000000000000000000000000000602082015250565b7f45434453413a20696e76616c6964207369676e6174757265202776272076616c60008201527f7565000000000000000000000000000000000000000000000000000000000000602082015250565b7f4552433732313a206d696e7420746f20746865207a65726f2061646472657373600082015250565b7f4552433732313a20617070726f76656420717565727920666f72206e6f6e657860008201527f697374656e7420746f6b656e0000000000000000000000000000000000000000602082015250565b7f63616e6e6f74206d696e742074686174206d616e790000000000000000000000600082015250565b7f5075626c69632073616c65206e6f742061637469766500000000000000000000600082015250565b7f4f776e61626c653a2063616c6c6572206973206e6f7420746865206f776e6572600082015250565b7f4552433732314d657461646174613a2055524920717565727920666f72206e6f60008201527f6e6578697374656e7420746f6b656e0000000000000000000000000000000000602082015250565b7f4552433732313a20617070726f76616c20746f2063757272656e74206f776e6560008201527f7200000000000000000000000000000000000000000000000000000000000000602082015250565b7f696e73756666696369656e742066756e64730000000000000000000000000000600082015250565b7f4552433732313a207472616e736665722063616c6c6572206973206e6f74206f60008201527f776e6572206e6f7220617070726f766564000000000000000000000000000000602082015250565b7f455243373231456e756d657261626c653a20676c6f62616c20696e646578206f60008201527f7574206f6620626f756e64730000000000000000000000000000000000000000602082015250565b7f576f756c6420657863656564206d617820737570706c79000000000000000000600082015250565b7f2f00000000000000000000000000000000000000000000000000000000000000600082015250565b614c3481614253565b8114614c3f57600080fd5b50565b614c4b81614265565b8114614c5657600080fd5b50565b614c628161427b565b8114614c6d57600080fd5b50565b614c79816142c7565b8114614c8457600080fd5b5056fea26469706673582212209190c24e83d196b76ee98ed236284643c1c0bdc1d1d5d57c1f984956db49083b64736f6c63430008040033",
  "linkReferences": {},
  "deployedLinkReferences": {}
}